:10000000F8FF002011040000C5BA0000CFB30000C3
:10001000C5BA0000C5BA0000C5BA0000C5BA0000E4
:10002000C5BA0000C5BA0000C5BA0000C5BA0000D4
:10003000C5BA0000C5BA000029B40000CDB3000065
:1000400041B30000C5BA0000C5BA0000C5BA00003F
:10005000C5BA0000C5BA0000C5BA0000C5BA0000A4
:10006000C5BA0000C5BA0000C5BA0000C5BA000094
:10007000C5BA0000C5BA0000C5BA0000C5BA000084
:10008000C5BA0000C5BA0000C5BA0000C5BA000074
:10009000C5BA0000C5BA0000C5BA0000C5BA000064
:1000A000C5BA0000C5BA0000C5BA0000C5BA000054
:1000B000C5BA0000C5BA0000C5BA0000C5BA000044
:1000C000C5BA0000C5BA0000C5BA0000C5BA000034
:1000D000C5BA0000C5BA0000C5BA0000C5BA000024
:1000E000C5BA0000C5BA0000C5BA0000C5BA000014
:1000F000C5BA0000C5BA0000C5BA0000C5BA000004
:10010000B9B30000C5BA0000C5BA0000C5BA000006
:10011000C5BA0000C5BA0000C5BA0000C5BA0000E3
:10012000C5BA0000C5BA0000C5BA0000C5BA0000D3
:10013000C5BA0000C5BA00002BB400002DB4000001
:10014000C5BA0000C5BA0000C5BA0000C5BA0000B3
:1001500061B30000C5BA0000C5BA0000C5BA00000E
:10016000C5BA0000C5BA0000C5BA0000C5BA000093
:10017000C5BA0000C5BA0000C5BA0000C5BA000083
:10018000C5BA0000C5BA0000C5BA0000C5BA000073
:10019000C5BA0000C5BA0000C5BA0000C5BA000063
:1001A00031AF0000C5BA0000D5B20000C5BA0000EA
:1001B000C5BA0000C5BA0000C5BA0000C5BA000043
:1001C000C5BA0000C5BA0000C5BA0000C5BA000033
:1001D000C5BA0000C5BA0000C5BA0000C5BA000023
:1001E000C5BA0000C5BA0000C5BA0000C5BA000013
:10040000FFFFFFFFFFFFFFFFFFFFFFFFFEFFFFFFFD
:1004100062B64FF000004FF000014FF000024FF0C5
:1004200000034FF000044FF000054FF000064FF0BE
:1004300000074FF000084FF000094FF0000A4FF09E
:10044000000B4FF0000C09F0A3F9FEE70080034019
:100450000090034000800B4000F00F4040F00F4040
:1004600080F00F40C0F00F4000F10F4000900440BA
:1004700000A0044000B0044000C0044000D004408C
:100480000101000000001645000016450000164559
:100490000000164500000000000000000000000001
:1004A000000000000000000000000000000000004C
:1004B000000000000000000000000000000000003C
:1004C000000000000000000000000000000000002C
:1004D000000000000000000000000000000000001C
:1004E000000000000000000000000000000000000C
:1004F00000000000000000000000000000000000FC
:1005000000000000000000000000000000000000EB
:1005100000000000000000000000000000000000DB
:1005200000000000000000000000000000000000CB
:1005300000000000000000000000000000000000BB
:10054000000000000001FFE0000000000FFFFC00C1
:100550000000003FFFFF00000000FFFFFFC00000A1
:1005600001FFFFFFE0000007FFFFFFF000000FFFAB
:10057000FFFFF800000FFFFFFFFC00001FFFC1FF9F
:10058000FC00003FFE007FFE00007FFC001FFF001C
:10059000007FF8000FFF0000FFF0000FFF8000FF5A
:1005A000E00007FF8001FFE00003FF8001FFC000C3
:1005B00003FFC001FFC00001FFC003FF800001FF77
:1005C000C003FF800001FFE003FF800000FFE007A1
:1005D000FF000000FFE007FF000000FFE007FF0052
:1005E0000000FFF007FF0000007FF007FE000000A2
:1005F0007FF00FFE0000007FF00FFE0000007FF094
:100600000FFE0000007FF00FFE0000007FF00FFEE5
:100610000000007FF00FFE0000003FF00FFE000022
:10062000003FF80FFC0000003FF80FFC0000003F07
:10063000F80FFC0000003FF80FFC0000003FF81F1F
:10064000FC0000003FF81FFC0000003FF81FFC000A
:1006500000003FF81FFC0000003FF81FFC000000F6
:100660003FF81FFC0000003FF80FFC0000003FF8BF
:100670000FFC0000003FF00FFE0000003FF00FFEF7
:100680000000003FF00FFE0000007FF00FFE0000B2
:10069000007FF00FFE0000007FF00FFE0000007FE3
:1006A000F00FFE0000007FF00FFE0000007FE0076B
:1006B000FF0000007FE007FF000000FFE007FF00F1
:1006C0000000FFE007FF000000FFE007FF800000E0
:1006D000FFC003FF800001FFC003FF800001FFC0D7
:1006E00003FFC00003FF8001FFC00003FF8001FF84
:1006F000E00007FF0000FFF00007FF0000FFF00030
:100700000FFE00007FFC001FFE00007FFE007FFC4C
:1007100000003FFF81FFF800001FFFFFFFF800000F
:100720000FFFFFFFF000000FFFFFFFE0000003FFDF
:10073000FFFFC0000001FFFFFF00000000FFFFFE01
:10074000000000003FFFF00000000003FF800000F9
:100750000000000000000000000000000000000099
:100760000000000000000000000000000000000089
:100770000000000000000000000000000000000079
:100780000000000000000000000000000000000069
:100790000000000000000000000000000000000059
:1007A0000000000000000000000000000000000049
:1007B0000000000000000000000000000000000039
:1007C0000000000000000000000000000000000029
:1007D0000000000000000000000000000000000019
:1007E0000000000000000000000000000000000009
:1007F00000000000000000000000000000000000F9
:1008000000000000000000000000000000000000E8
:1008100000000000000000000000000000000000D8
:1008200000000000000000000000000000000000C8
:1008300000000000000000000000000000000000B8
:1008400000000000000000000000000000000000A8
:100850000000000000000000000000000000000098
:100860000000000000000000000000000000000088
:100870000000000000000000000000000000000078
:100880000000000000000000000000000000000068
:100890000000000000000000000000000000000058
:1008A0000000000000000000000000E00000000068
:1008B0000007E000000000007FE00000000003FFF0
:1008C000E0000000001FFFE000000000FFFFE0006C
:1008D00000000FFFFFE00000007FFFFFE0000000CE
:1008E000FFFFFFE0000000FFFFFFE0000000FFFF50
:1008F000FFE0000000FFFFFFE0000000FFF8FFE066
:10090000000000FFC0FFE0000000FC00FFE000006E
:1009100000E000FFE00000000000FFE00000000039
:1009200000FFE00000000000FFE00000000000FF0A
:10093000E00000000000FFE00000000000FFE00019
:1009400000000000FFE00000000000FFE0000000E9
:100950000000FFE00000000000FFE00000000000D9
:10096000FFE00000000000FFE00000000000FFE0EA
:100970000000000000FFE00000000000FFE00000B9
:10098000000000FFE00000000000FFE000000000A9
:1009900000FFE00000000000FFE00000000000FF9A
:1009A000E00000000000FFE00000000000FFE000A9
:1009B00000000000FFE00000000000FFE000000079
:1009C0000000FFE00000000000FFE0000000000069
:1009D000FFE00000000000FFE00000000000FFE07A
:1009E0000000000000FFE00000000000FFE0000049
:1009F000000000FFE00000000000FFE00000000039
:100A000000FFE00000000000FFE00000000000FF29
:100A1000E00000000000FFE00000000000FFE00038
:100A200000000000FFE00000000000FFE000000008
:100A30000000FFE00000000000FFE00000000000F8
:100A4000FFE00000000000FFE00000000000FFE009
:100A50000000000000FFE00000000000FFE00000D8
:100A6000000000FFE00000000000FFE000000000C8
:100A700000FFE0000000FFFFFFFFFFE000FFFFFFBF
:100A8000FFFFE000FFFFFFFFFFE000FFFFFFFFFFB2
:100A9000E000FFFFFFFFFFE000FFFFFFFFFFE000C0
:100AA000FFFFFFFFFFE000FFFFFFFFFFE000000090
:100AB0000000000000000000000000000000000036
:100AC0000000000000000000000000000000000026
:100AD0000000000000000000000000000000000016
:100AE0000000000000000000000000000000000006
:100AF00000000000000000000000000000000000F6
:100B000000000000000000000000000000000000E5
:100B100000000000000000000000000000000000D5
:100B200000000000000000000000000000000000C5
:100B300000000000000000000000000000000000B5
:100B400000000000000000000000000000000000A5
:100B50000000000000000000000000000000000095
:100B60000000000000000000000000000000000085
:100B70000000000000000000000000000000000075
:100B80000000000000000000000000000000000065
:100B90000000000000000000000000000000000055
:100BA0000000000000000000000000000000000045
:100BB0000000000000000000000000000000000035
:100BC0000000000000000000000000000000000025
:100BD0000000000000000000000000000000000015
:100BE0000000000000000000000000000000000005
:100BF00000000000000000000000000000000000F5
:100C00000000000000000000000000000003FFE002
:100C1000000000001FFFFC00000000FFFFFF80003D
:100C20000003FFFFFFC0000007FFFFFFF000001FF1
:100C3000FFFFFFF800003FFFFFFFFC00007FFFFF0A
:100C4000FFFE0000FFFE01FFFE0000FFF0003FFF7F
:100C50000000FF80001FFF0000FF00000FFF80006A
:100C6000FC000007FF8000F8000003FFC000E00068
:100C70000001FFC000C0000001FFC0000000000133
:100C8000FFC00000000001FFC00000000000FFC026
:100C90000000000000FFC00000000000FFC00000D6
:100CA000000000FFC00000000000FFC000000000C6
:100CB00000FFC00000000001FFC00000000001FFB5
:100CC000C00000000001FF800000000001FF800064
:100CD00000000003FF800000000003FF0000000090
:100CE0000007FF000000000007FF00000000000FE9
:100CF000FE00000000001FFE00000000001FFC00BE
:100D0000000000003FF800000000007FF800000035
:100D10000000FFF00000000000FFE0000000000104
:100D2000FFC00000000003FFC00000000007FF80BC
:100D3000000000000FFF00000000001FFE00000088
:100D400000003FFC00000000007FF80000000000F1
:100D5000FFF00000000001FFE00000000003FFC002
:100D60000000000007FF80000000000FFF000000EF
:100D700000001FFE00000000003FFC00000000001B
:100D80007FF80000000000FFF00000000001FFE01D
:100D90000000000003FFC00000000007FF8000000B
:100DA00000000FFF00000000001FFE000000000018
:100DB0003FFC00000000007FF80000000000FFF092
:100DC0000000000001FFE00000000003FFC0000081
:100DD000000007FF80000000000FFFFFFFFFFFC0C3
:100DE0000FFFFFFFFFFFC00FFFFFFFFFFFC00FFF61
:100DF000FFFFFFFFC00FFFFFFFFFFFC00FFFFFFF61
:100E0000FFFFC00FFFFFFFFFFFC00FFFFFFFFFFF50
:100E1000C000000000000000000000000000000012
:100E200000000000000000000000000000000000C2
:100E300000000000000000000000000000000000B2
:100E400000000000000000000000000000000000A2
:100E50000000000000000000000000000000000092
:100E60000000000000000000000000000000000082
:100E70000000000000000000000000000000000072
:100E80000000000000000000000000000000000062
:100E90000000000000000000000000000000000052
:100EA0000000000000000000000000000000000042
:100EB0000000000000000000000000000000000032
:100EC0000000000000000000000000000000000022
:100ED0000000000000000000000000000000000012
:100EE0000000000000000000000000000000000002
:100EF00000000000000000000000000000000000F2
:100F000000000000000000000000000000000000E1
:100F100000000000000000000000000000000000D1
:100F200000000000000000000000000000000000C1
:100F300000000000000000000000000000000000B1
:100F400000000000000000000000000000000000A1
:100F50000000000000000000000000000000000091
:100F60000000000000000000000000000000000081
:100F7000000FFF0000000000FFFFF000000007FF6F
:100F8000FFFC0000001FFFFFFF0000003FFFFFFF0E
:100F90008000007FFFFFFFC000007FFFFFFFE00039
:100FA000007FFFFFFFF000007FF00FFFF800007FE1
:100FB0008001FFF800007C00007FFC00007800004A
:100FC0003FFC00006000001FFE00000000001FFE4C
:100FD00000000000000FFE00000000000FFE0000F7
:100FE0000000000FFE00000000000FFE00000000E7
:100FF000000FFE00000000000FFE00000000000FC8
:10100000FE00000000000FFE00000000000FFE00C8
:10101000000000000FFC00000000000FFC000000BA
:1010200000001FFC00000000003FF800000000006E
:101030003FF800000000007FF00000000001FFE02A
:101040000000000007FFC0000000007FFF800000DC
:1010500007FFFFFF00000007FFFFFC00000007FF85
:10106000FFF000000007FFFF8000000007FFFFF80F
:1010700000000007FFFFFF00000007FFFFFFC000A8
:101080000007FFFFFFE0000000003FFFF00000004E
:101090000003FFF80000000000FFFC00000000005B
:1010A0003FFE00000000001FFF00000000000FFFD7
:1010B000000000000007FF800000000003FF800028
:1010C00000000003FF800000000003FF800000001C
:1010D0000001FFC00000000001FFC000000000018F
:1010E000FFC00000000001FFC00000000001FFC0C1
:1010F0000000000001FFC00000000001FFC0000070
:10110000000003FF800000000003FF8000000000DB
:1011100003FF800000000007FF80030000000FFFB6
:101120000003C000001FFF0003E000003FFE0003BB
:10113000F800007FFE0003FE0001FFFC0003FFE05B
:101140000FFFF80003FFFFFFFFF00003FFFFFFFFAB
:10115000E00001FFFFFFFFC00000FFFFFFFF800076
:10116000007FFFFFFE0000001FFFFFF800000007E8
:10117000FFFFE0000000007FFC0000000000000016
:10118000000000000000000000000000000000005F
:10119000000000000000000000000000000000004F
:1011A000000000000000000000000000000000003F
:1011B000000000000000000000000000000000002F
:1011C000000000000000000000000000000000001F
:1011D000000000000000000000000000000000000F
:1011E00000000000000000000000000000000000FF
:1011F00000000000000000000000000000000000EF
:1012000000000000000000000000000000000000DE
:1012100000000000000000000000000000000000CE
:1012200000000000000000000000000000000000BE
:1012300000000000000000000000000000000000AE
:10124000000000000000000000000000000000009E
:10125000000000000000000000000000000000008E
:10126000000000000000000000000000000000007E
:10127000000000000000000000000000000000006E
:10128000000000000000000000000000000000005E
:10129000000000000000000000000000000000004E
:1012A000000000000000000000000000000000003E
:1012B000000000000000000000000000000000002E
:1012C000000000000000000000000000000000001E
:1012D0000000000000000000000000000000FFF01F
:1012E0000000000001FFF00000000003FFF000001C
:1012F000000003FFF00000000007FFF00000000006
:101300000FFFF0000000000FFFF0000000001FFFC3
:10131000F0000000003FFFF0000000003FFFF00081
:101320000000007FFFF000000000FFFFF000000061
:1013300000FFFFF000000001FFBFF000000003FF0E
:10134000BFF000000003FF3FF000000007FE3FF089
:101350000000000FFE3FF00000000FFC3FF0000017
:10136000001FF83FF00000003FF83FF00000003F92
:10137000F03FF00000007FE03FF00000007FE03F22
:10138000F0000000FFC03FF0000001FF803FF000D0
:101390000001FF803FF0000003FF003FF000000766
:1013A000FE003FF0000007FE003FF000000FFC00D1
:1013B0003FF000001FF8003FF000001FF8003FF072
:1013C00000003FF0003FF000007FE0003FF0000031
:1013D0007FE0003FF00000FFC0003FF00001FF8011
:1013E000003FF00001FF80003FF00003FF00003FDE
:1013F000F00007FE00003FF00007FE00003FF00095
:101400000FFC00003FF0001FF800003FF0001FF845
:1014100000003FF0003FF000003FF0007FE00000E0
:101420003FF0007FFFFFFFFFFFFCFFFFFFFFFFFF1D
:10143000FCFFFFFFFFFFFFFCFFFFFFFFFFFFFCFFC5
:10144000FFFFFFFFFFFCFFFFFFFFFFFFFCFFFFFFB2
:10145000FFFFFFFCFFFFFFFFFFFFFC000000003F5E
:10146000F000000000003FF000000000003FF0002E
:10147000000000003FF000000000003FF00000000E
:1014800000003FF000000000003FF00000000000FE
:101490003FF000000000003FF000000000003FF0BF
:1014A00000000000003FF000000000003FF00000DE
:1014B0000000003FF000000000003FF000000000CE
:1014C000003FF000000000003FF000000000003F7F
:1014D000F000000000003FF00000000000000000ED
:1014E00000000000000000000000000000000000FC
:1014F00000000000000000000000000000000000EC
:1015000000000000000000000000000000000000DB
:1015100000000000000000000000000000000000CB
:1015200000000000000000000000000000000000BB
:1015300000000000000000000000000000000000AB
:10154000000000000000000000000000000000009B
:10155000000000000000000000000000000000008B
:10156000000000000000000000000000000000007B
:10157000000000000000000000000000000000006B
:10158000000000000000000000000000000000005B
:10159000000000000000000000000000000000004B
:1015A000000000000000000000000000000000003B
:1015B000000000000000000000000000000000002B
:1015C000000000000000000000000000000000001B
:1015D000000000000000000000000000000000000B
:1015E00000000000000000000000000000000000FB
:1015F00000000000000000000000000000000000EB
:1016000000000000000000000000000000000000DA
:1016100000000000000000000000000000000000CA
:1016200000000000000000000000000000000000BA
:101630000000000000000000000000000000003F6B
:10164000FFFFFFFE00003FFFFFFFFE00003FFFFF28
:10165000FFFE00003FFFFFFFFE00003FFFFFFFFE19
:1016600000003FFFFFFFFE00003FFFFFFFFE000006
:101670003FFFFFFFFE00003FF000000000003FF0D2
:1016800000000000003FF000000000003FF00000FC
:101690000000003FF000000000003FF000000000EC
:1016A000003FF000000000003FF000000000003F9D
:1016B000F000000000003FF000000000003FF000DC
:1016C000000000003FF000000000003FF0000000BC
:1016D00000003FF000000000003FF00000000000AC
:1016E0003FF000000000003FF000000000003FF06D
:1016F00000000000003FF000000000003FF000008C
:101700000000003FFFFF000000003FFFFFF000006F
:10171000003FFFFFFE0000003FFFFFFF8000003F93
:10172000FFFFFFC000003FFFFFFFE000003FFFFFA3
:10173000FFF000003FFFFFFFF8000038001FFFFC34
:101740000000000001FFFE00000000007FFE00001E
:101750000000003FFF00000000001FFF000000002D
:10176000000FFF800000000007FF80000000000362
:10177000FF800000000003FFC00000000001FFC068
:101780000000000001FFC00000000001FFC00000D9
:10179000000001FFC00000000001FFC000000000C9
:1017A00001FFC00000000001FFC00000000001FFB9
:1017B000C00000000001FFC00000000001FFC000E9
:1017C00000000001FFC00000000003FF80000000D7
:1017D0000003FF800000000007FF800000000007FA
:1017E000FF80000000000FFF0001C000001FFF008D
:1017F00001F000003FFE0001FC0000FFFE0001FFC1
:101800000001FFFC0001FFE01FFFF80001FFFFFFE8
:10181000FFF00001FFFFFFFFE00001FFFFFFFFC03F
:101820000000FFFFFFFF8000003FFFFFFE00000001
:101830001FFFFFF800000007FFFFE0000000007F2F
:10184000FE0000000000000000000000000000009A
:101850000000000000000000000000000000000088
:101860000000000000000000000000000000000078
:101870000000000000000000000000000000000068
:101880000000000000000000000000000000000058
:101890000000000000000000000000000000000048
:1018A0000000000000000000000000000000000038
:1018B0000000000000000000000000000000000028
:1018C0000000000000000000000000000000000018
:1018D0000000000000000000000000000000000008
:1018E00000000000000000000000000000000000F8
:1018F00000000000000000000000000000000000E8
:1019000000000000000000000000000000000000D7
:1019100000000000000000000000000000000000C7
:1019200000000000000000000000000000000000B7
:1019300000000000000000000000000000000000A7
:101940000000000000000000000000000000000097
:101950000000000000000000000000000000000087
:101960000000000000000000000000000000000077
:101970000000000000000000000000000000000067
:101980000000000000000000000000000000000057
:10199000000000000000000000000000000007FF41
:1019A000C0000000003FFFF800000001FFFFFE0044
:1019B000000007FFFFFF0000000FFFFFFF00000017
:1019C0003FFFFFFF0000007FFFFFFF000000FFFF61
:1019D000FFFF000001FFFF00FF000003FFF8001FF2
:1019E000000003FFE00007000007FFC00000000048
:1019F0000FFF80000000000FFF00000000001FFE2E
:101A000000000000003FFC00000000003FF8000064
:101A10000000007FF800000000007FF000000000E0
:101A2000007FE00000000000FFE00000000000FF79
:101A3000E00000000001FFC00000000001FFC00046
:101A400000000001FF800000000001FF8000000096
:101A50000003FF800000000003FF8000000000037F
:101A6000FF803FF8000003FF01FFFF800003FF0736
:101A7000FFFFE00007FF0FFFFFF00007FF1FFFFF62
:101A8000FC0007FF3FFFFFFE0007FF7FFFFFFF0097
:101A900007FFFFFFFFFF0007FFFFC07FFF8007FF7B
:101AA000FE001FFFC007FFFC0007FFC007FFF80094
:101AB00003FFE007FFF00001FFE007FFE00001FF88
:101AC000E007FFC00000FFF007FFC000007FF00745
:101AD000FF8000007FF007FF8000007FF007FF809D
:101AE00000007FF807FF0000003FF807FF0000003C
:101AF0003FF807FF0000003FF807FF0000003FF835
:101B000007FF0000003FF803FF0000003FF803FF5D
:101B10000000003FF803FF8000003FF803FF800053
:101B2000003FF003FF8000007FF001FF8000007F96
:101B3000F001FFC000007FF001FFC00000FFE000E7
:101B4000FFE00000FFE000FFF00001FFE0007FF099
:101B50000003FFC0007FF80007FFC0003FFC000F3C
:101B6000FF80003FFF001FFF80001FFFC0FFFF003E
:101B7000000FFFFFFFFE000007FFFFFFFC00000358
:101B8000FFFFFFF8000001FFFFFFF0000000FFFF74
:101B9000FFC00000003FFFFF800000000FFFFC00BF
:101BA00000000001FFE00000000000000000000055
:101BB0000000000000000000000000000000000025
:101BC0000000000000000000000000000000000015
:101BD0000000000000000000000000000000000005
:101BE00000000000000000000000000000000000F5
:101BF00000000000000000000000000000000000E5
:101C000000000000000000000000000000000000D4
:101C100000000000000000000000000000000000C4
:101C200000000000000000000000000000000000B4
:101C300000000000000000000000000000000000A4
:101C40000000000000000000000000000000000094
:101C50000000000000000000000000000000000084
:101C60000000000000000000000000000000000074
:101C70000000000000000000000000000000000064
:101C80000000000000000000000000000000000054
:101C90000000000000000000000000000000000044
:101CA0000000000000000000000000000000000034
:101CB0000000000000000000000000000000000024
:101CC0000000000000000000000000000000000014
:101CD0000000000000000000000000000000000004
:101CE00000000000000000000000000000000000F4
:101CF00000000000000000000000000000000000E4
:101D00000000000000000FFFFFFFFFFFF00FFFFFCC
:101D1000FFFFFFF00FFFFFFFFFFFF00FFFFFFFFFD1
:101D2000FFF00FFFFFFFFFFFF00FFFFFFFFFFFE0E0
:101D30000FFFFFFFFFFFE00FFFFFFFFFFFC00000EF
:101D4000000001FFC00000000001FF800000000053
:101D500001FF800000000003FF800000000003FF7F
:101D6000000000000007FF000000000007FE000068
:101D700000000007FE00000000000FFE0000000051
:101D8000000FFC00000000001FFC00000000001F0E
:101D9000F800000000001FF800000000003FF800FD
:101DA000000000003FF000000000007FF000000095
:101DB00000007FE00000000000FFE00000000000E5
:101DC000FFE00000000000FFC00000000001FFC0B5
:101DD0000000000001FF800000000003FF80000001
:101DE000000003FF800000000003FF00000000006F
:101DF00007FF000000000007FE00000000000FFECB
:101E000000000000000FFE00000000000FFC0000BA
:101E10000000001FFC00000000001FF80000000090
:101E2000003FF800000000003FF800000000007FC5
:101E3000F000000000007FF000000000007FE000E4
:101E400000000000FFE00000000000FFE0000000D4
:101E50000001FFC00000000001FFC0000000000101
:101E6000FF800000000003FF800000000003FF80EF
:101E70000000000007FF000000000007FF00000056
:101E8000000007FE00000000000FFE000000000040
:101E90000FFE00000000001FFC00000000001FFCFF
:101EA00000000000003FF800000000003FF80000C4
:101EB0000000003FF800000000007FF0000000007C
:101EC000007FF00000000000FFE00000000000FFC5
:101ED000E00000000000FFE00000000001FFC00083
:101EE00000000001FFC00000000003FF80000000B0
:101EF0000003FF800000000003FF800000000007D7
:101F0000FF000000000000000000000000000000D2
:101F100000000000000000000000000000000000C1
:101F200000000000000000000000000000000000B1
:101F300000000000000000000000000000000000A1
:101F40000000000000000000000000000000000091
:101F50000000000000000000000000000000000081
:101F60000000000000000000000000000000000071
:101F70000000000000000000000000000000000061
:101F80000000000000000000000000000000000051
:101F90000000000000000000000000000000000041
:101FA0000000000000000000000000000000000031
:101FB0000000000000000000000000000000000021
:101FC0000000000000000000000000000000000011
:101FD0000000000000000000000000000000000001
:101FE00000000000000000000000000000000000F1
:101FF00000000000000000000000000000000000E1
:1020000000000000000000000000000000000000D0
:1020100000000000000000000000000000000000C0
:1020200000000000000000000000000000000000B0
:1020300000000000000000000000000000000000A0
:102040000000000000000000000000000000000090
:102050000000000000000000000000000000000080
:10206000000000000001FFE0000000001FFFFE0074
:102070000000007FFFFF80000001FFFFFFC00000A5
:1020800007FFFFFFF000000FFFFFFFF800001FFF3A
:10209000FFFFFC00003FFFFFFFFE00003FFF80FF4F
:1020A000FE00007FFE003FFF0000FFF8001FFF0062
:1020B00000FFF00007FF8000FFE00007FF8001FF46
:1020C000E00003FF8001FFC00003FF8001FFC000AC
:1020D00003FFC001FFC00001FFC001FFC00001FFFE
:1020E000C001FFC00001FFC001FFC00001FFC0012F
:1020F000FFC00001FF8001FFC00003FF8001FFC09F
:102100000003FF8000FFE00003FF8000FFE0000706
:10211000FF0000FFF0000FFF00007FF8000FFE003F
:10212000007FFC001FFC00003FFE007FFC00001F42
:10213000FF00FFF800000FFFC3FFF0000007FFFFE4
:10214000FFE0000003FFFFFF80000000FFFFFF0033
:102150000000007FFFFC000000001FFFF0000000F7
:10216000003FFFFC00000000FFFFFF00000003FF36
:10217000FFFFC0000007FFFFFFF000000FFFEFFFB1
:10218000F800003FFF81FFFC00007FFE00FFFE0023
:1021900000FFFC003FFF0000FFF0001FFF8001FF79
:1021A000E00007FF8003FFC00003FFC003FF8000C3
:1021B00001FFC003FF800001FFE007FF000000FFF8
:1021C000E007FF000000FFE007FE0000007FF00FC7
:1021D000FE0000007FF00FFE0000007FF00FFE0009
:1021E00000007FF00FFE0000007FF00FFE000000F7
:1021F0007FF00FFE0000007FF00FFE0000007FF078
:102200000FFF0000007FF007FF000000FFE007FF66
:10221000800001FFE007FFC00001FFE003FFE000D6
:1022200003FFC003FFF0000FFFC001FFFC001FFF12
:102230008001FFFF00FFFF0000FFFFFFFFFF000026
:102240007FFFFFFFFE00003FFFFFFFFC00001FFFBE
:10225000FFFFF0000007FFFFFFE0000003FFFFFFAC
:10226000800000007FFFFC000000000FFFC00000A6
:10227000000000000000000000000000000000005E
:10228000000000000000000000000000000000004E
:10229000000000000000000000000000000000003E
:1022A000000000000000000000000000000000002E
:1022B000000000000000000000000000000000001E
:1022C000000000000000000000000000000000000E
:1022D00000000000000000000000000000000000FE
:1022E00000000000000000000000000000000000EE
:1022F00000000000000000000000000000000000DE
:1023000000000000000000000000000000000000CD
:1023100000000000000000000000000000000000BD
:1023200000000000000000000000000000000000AD
:10233000000000000000000000000000000000009D
:10234000000000000000000000000000000000008D
:10235000000000000000000000000000000000007D
:10236000000000000000000000000000000000006D
:10237000000000000000000000000000000000005D
:10238000000000000000000000000000000000004D
:10239000000000000000000000000000000000003D
:1023A000000000000000000000000000000000002D
:1023B000000000000000000000000000000000001D
:1023C00000000000000000000003FFC0000000004B
:1023D0003FFFF800000000FFFFFE00000003FFFFCA
:1023E000FF80000007FFFFFFC000000FFFFFFFE0BE
:1023F00000001FFFFFFFF000003FFFFFFFF800009D
:102400007FFF83FFFC0000FFFC007FFC0000FFF863
:10241000003FFE0001FFE0001FFF0003FFC0000FB0
:10242000FF0003FFC00007FF8003FF800003FF8061
:1024300007FF000003FF8007FF000001FFC007FF48
:10244000000001FFC00FFE000000FFC00FFE0000F3
:1024500000FFC00FFE000000FFE00FFE000000FFC5
:10246000E00FFE000000FFE00FFE0000007FE00F25
:10247000FE0000007FE00FFE0000007FE00FFE0086
:1024800000007FF00FFE0000007FF00FFE00000054
:10249000FFF00FFF000000FFF007FF000000FFF05B
:1024A00007FF000001FFF007FF800001FFF007FFBA
:1024B000800003FFF003FFC00007FFF003FFE00010
:1024C0000FFFF001FFF0001FFFF001FFFC003FFFD6
:1024D000F000FFFF81FFFFF0007FFFFFFFFFF00034
:1024E0003FFFFFFFFFF0001FFFFFFF7FE0000FFF38
:1024F000FFFE7FE00007FFFFFC7FE00001FFFFF031
:102500007FE000007FFFE07FE000000FFE007FE043
:102510000000000000FFE00000000000FFC000001D
:10252000000000FFC00000000000FFC0000000002D
:1025300001FFC00000000001FF800000000001FF5B
:10254000800000000003FF800000000003FF800007
:1025500000000003FF000000000007FF0000000073
:10256000000FFE00000000000FFE00000000001F32
:10257000FC00000000003FFC00000000007FF800AD
:1025800000000000FFF00000E00001FFF00000F894
:102590000007FFE00000FF803FFFC00000FFFFFFDB
:1025A000FF800000FFFFFFFF000000FFFFFFFE00B5
:1025B0000000FFFFFFFC000000FFFFFFF000000035
:1025C0007FFFFFC00000000FFFFF0000000001FFC1
:1025D000F00000000000000000000000000000000B
:1025E00000000000000000000000000000000000EB
:1025F00000000000000000000000000000000000DB
:1026000000000000000000000000000000000000CA
:1026100000000000000000000000000000000000BA
:102880000000000000000000000000000000001038
:1028900010101010100010100000000000000024A4
:1028A00024240000000000000000000000000024BC
:1028B000247E2424247E2424000000000000001034
:1028C0007C90907C12127C10000000000000000040
:1028D00062640810204C8C00000000000000000022
:1028E000182420508A844A300000000000000010A4
:1028F0001020000000000000000000000000081090
:10290000202020202020201008000000000020109F
:10291000080808080808081020000000000000004F
:10292000001054383854100000000000000000006F
:102930000010107C101000000000000000000000DB
:102940000000000000001010200000000000000047
:102950000000007C000000000000000000000000FB
:102960000000000000000010000000000000000057
:1029700000020408102040000000000000000038A1
:1029800044444C54644444380000000000000010EB
:102990003010101010101038000000000000003837
:1029A000440404081020407C000000000000007C6B
:1029B0000408103804040478000000000000000837
:1029C000182848487C080808000000000000007C27
:1029D0004040407804040478000000000000003CFF
:1029E0004040407844444438000000000000007C2F
:1029F00004040810202020200000000000000038FF
:102A00004444443844444438000000000000003886
:102A10004444443C0404043800000000000000006A
:102A20000000001000001000000000000000000086
:102A30000000000010001010200000000000000046
:102A4000000408102010080400000000000000002E
:102A50000000007C007C000000000000000000007E
:102A60000020100804081020000000000000384476
:102A700044040810100010100000000000000000C6
:102A80000038445C545C403C000000000000182406
:102A90004242427E424242420000000000007C422C
:102AA00042427C424242427C0000000000003C4224
:102AB000404040404040423C0000000000007C425A
:102AC000424242424242427C0000000000007E40FE
:102AD000404078404040407E0000000000007E40C2
:102AE00040407840404040400000000000003C4230
:102AF00040405E424242423C000000000000424230
:102B000042427E4242424242000000000000381031
:102B100010101010101010380000000000001C08E9
:102B20000808080808084830000000000000424477
:102B3000485060605048444200000000000040409F
:102B4000404040404040407E000000000000828243
:102B5000C6C6AAAA929282820000000000004262C9
:102B60006252524A4A4646420000000000003C427F
:102B7000424242424242423C0000000000007C428D
:102B80004242427C404040400000000000003C4285
:102B90004242424242424A3C0E00000000007C4257
:102BA0004242427C504844420000000000003C4247
:102BB00040403C020202423C0000000000007C1049
:102BC0001010101010101010000000000000424201
:102BD000424242424242423C000000000000444463
:102BE00044442828281010100000000000008282B1
:102BF00082825454542828280000000000004242D9
:102C00002418181824244242000000000000444404
:102C100044442828101010100000000000007E021C
:102C2000020408102040407E000000000000382010
:102C3000202020202020203800000000000000007C
:102C400000004020100804020000000000001C04E6
:102C5000040404040404041C00000000000000003C
:102C600010284400000000000000000000000000E8
:102C70000000000000000000FF0000000000001045
:102C8000100800000000000000000000000000002C
:102C90000078043C4444443A0000000000004040F6
:102CA000405C62424242625C0000000000000000A2
:102CB000003C42404040423C000000000000020254
:102CC000023A46424242463A00000000000000003C
:102CD000003C42427E40423C0000000000000E10DA
:102CE00010103C1010101010000000000000000038
:102CF000003E424242423E02023C00000000404090
:102D0000405C624242424242000000000000000873
:102D10000008080808080808000000000000000477
:102D2000000404040404040444380000000040408B
:102D30004042444850684442000000000000101027
:102D40001010101010101010000000000000000003
:102D500000EC92929292929200000000000000001B
:102D6000007C42424242424200000000000000005B
:102D7000003C42424242423C000000000000000091
:102D8000005C62424242625C404000000000000081
:102D9000003A46424242463A020200000000000069
:102DA000005C624040404040000000000000000025
:102DB000003C42403C02423C000000000000002079
:102DC000207820202020221C0000000000000000AD
:102DD000004242424242423E000000000000000029
:102DE000004242424242241800000000000000005D
:102DF000008282829292AA4400000000000000003B
:102E0000004242241824424200000000000000005A
:102E10000042424242423E02023C000000000000EA
:102E2000007E02041820407E000000000000081010
:102E3000101020402010101008000000001010108A
:102E400010101010101010101010100000002010A2
:102E500010100804081010102000000000000000EE
:102E60000000225488000000000000000000000064
:102E7000000000000000000000000000C8AB0001DE
:102E800000010002800440082010102FE8C1060154
:102E90000001001FF00100010001007FFC0000B6EE
:102EA000AF00004000407C40004001FC0044FE4474
:102EB00020442044208448844484FD04450402289E
:102EC0000410B5E7000100010001003FF8210821CE
:102ED000083FF82108210821083FF82108010201D4
:102EE0000200FE0000D7D30000003FF000200040A9
:102EF0000080010001000104FFFE0100010001004B
:102F00000100010005000200BFC60006087888081D
:102F1000480848FE0818881C482A48280E48788B1C
:102F20008808080808080808080808BCBC00102021
:102F300010201020FDFE1020142019FC3108D0882C
:102F40001090106010601090110E56042000D3D025
:102F500000010001007FFE020004000FF01810289D
:102F6000104FF0881008100FF00810089008700833
:102F700020CFDE000000FBF8920893F8A208A20818
:102F800093F88A808A48AA50922082208210828EEA
:102F900083048200B9AB00000004400640044008EE
:102FA0002008101018220E430402000420081011FB
:102FB000F83F1810100000CBBE0000003FFC0004DA
:102FC00000047FE4000400043FC4204420443FC4C4
:102FD00020442004001400080000D7A800010001CC
:102FE000003FF802000200FFFE040008200FF0007E
:102FF00020004002800100008000400000D2B500A7
:1030000004400440044004444446244C24481450E2
:103010001C501460044004400444FFFE0000000003
:10302000BFAA0000007FFE0420042004200420FF2B
:10303000FE04200420042008200820102020204026
:10304000200000B7A20002002240223022107FFEA2
:103050002400040007E00C200A200A2011402080F0
:103060004160861C1808B0E500101C11E011001129
:1030700000FD0011FC398435485548523092101239
:10308000301448108E11040000B9A40000003FFC69
:103090000100010001000100010001000100010028
:1030A000010001000100FFFE00000000BFD8001079
:1030B0000010201010FDFE11041050148C19043063
:1030C00000D1FC102010201020102053FE2000C939
:1030D000E800400021F03110211001100110E20E33
:1030E00025F8210821082090209028603090230E98
:1030F0000C04B1B80008000FF00820142022404151
:103100008002400C30301EDFF411101FF01110113E
:10311000101FF01010BCBC00102010201020FDFE6D
:103120001020142019FC3108D08810901060106015
:103130001090110E56042000CAF500010001200174
:10314000100100FFFE010003800540052009101159
:1031500018210EC104010001000000D6A7000100E3
:10316000010001007FFE010001001FF8081004208B
:1031700004200240018002400C30700E0004B3D6DF
:10318000001040104013FCFC40104017FE141018B3
:103190001037FED010111010D01090101050502089
:1031A00020C2DB004040204030A0209001080206F1
:1031B000E5042110213821C0210025002904310413
:1031C00020FC0000CCB300000011FC100010001027
:1031D00000FC0013FE1040106010801C883104C2F7
:1031E0007E07C6020400000000000000010000008D
:1031F0000000803F00000000000000000000000010
:1032000000000000000000000000000007000000B7
:10321000030000000A0000008C00000046000000CF
:10322000C80000000B1F00000009000001000000A2
:103230000DC1110009030CD01240173F185019039B
:103240001A783200A00A63E0ACFF650C66006700E4
:1032500029502C782A007E0C7F16802A814E8261AC
:10326000836F847B8586868E879788A489AF8AC57D
:103270008BD78CE88D204A00491347084B144C1714
:10328000460522992303A6049B009C50AB069E1181
:103290009F0200003100000000A0064000B0064080
:1032A00000C0064000D0064000A00E4000B00E4016
:1032B000DFF8340C006850F40020DFF82C1C0860A4
:1032C000DFF8280C006850F00100DFF8201C0860CF
:1032D000DFF81C0C006830F40020DFF8141C0860D4
:1032E00000BFDFF8100C006850F00100DFF8041C8C
:1032F000086000BF00BF00BF00BF00BF00BF00BF2D
:1033000000BF00BF00BF00BFDFF8E40B006850F44F
:103310000020DFF8DC1B086000BF00BF00BF00BF5B
:1033200000BF00BF00BF00BF00BF00BF00BF00BFA5
:1033300000BF00BF00BF00BF00BF00BF00BF00BF95
:1033400000BF00BF00BF00BF00BF00BF00BF00BF85
:1033500000BF00BF00BF00BF00BF00BF00BF00BF75
:1033600000BF00BF00BF00BFDFF8880B0068400847
:103370004000DFF8801B086000BF00BF00BF00BF37
:1033800000BF00BF00BF00BF00BF00BF00BF00BF45
:1033900000BF00BF00BF00BF00BF00BF00BF00BF35
:1033A00000BF00BF00BF00BF00BF00BF00BF00BF25
:1033B00000BF00BF00BF00BF00BF00BF00BF00BF15
:1033C00000BF00BF00BF00BFDFF8240B006830F46F
:1033D0000020DFF81C1B086070470000DFF8080BB6
:1033E000006850F40020DFF8001B0860DFF8FC0ADA
:1033F000006850F00100DFF8F41A0860DFF8F00A06
:10340000006830F40020DFF8E81A086000BF00BF51
:1034100000BF00BF00BF00BF00BF00BF00BF00BFB4
:1034200000BFDFF8D00A006840084000DFF8C41A87
:10343000086000BF00BF00BF00BF00BF00BF00BFEB
:1034400000BF00BF00BF00BFDFF8A40A006850F44F
:103450000020DFF89C1A086000BF00BF00BF00BF5B
:1034600000BF00BF00BF00BF00BF00BF00BF00BF64
:1034700000BF00BF00BF00BF00BF00BF00BF00BF54
:1034800000BF00BF00BF00BF00BF00BF00BF00BF44
:1034900000BF00BF00BF00BF00BF00BF00BF00BF34
:1034A00000BF00BF00BF00BFDFF8480A006850F04F
:1034B0000100DFF8401A086000BF00BF00BF00BF76
:1034C00000BF00BF00BF00BF00BF00BF00BF00BF04
:1034D00000BF00BF00BF00BF00BF00BF00BF00BFF4
:1034E00000BF00BF00BF00BF00BF00BF00BF00BFE4
:1034F00000BF00BF00BF00BF00BF00BF00BF00BFD4
:1035000000BF00BF00BF00BFDFF8E409006830F46F
:103510000020DFF8DC19086070470000DFF8C829D8
:10352000126852F40022DFF8C0391A60DFF8BC29B3
:10353000126852F00102DFF8B4391A6000BF0022AD
:103540001100C9B2082962DADFF8A429126832F43E
:103550000022DFF89C391A60C0B210FA01F212069C
:1035600008D5DFF89029126852F00102DFF884399B
:103570001A6007E0DFF87C29126852085200DFF871
:1035800074391A6000BF00BF00BF00BF00BF00BF9A
:1035900000BF00BF00BF00BF00BFDFF854291268A2
:1035A00052F40022DFF848391A6000BF00BF00BFA4
:1035B00000BF00BF00BF00BF00BF00BF00BF00BF13
:1035C00000BF00BF00BF00BF00BF00BF00BF00BF03
:1035D00000BF00BF00BF00BF00BF00BF00BF00BFF3
:1035E00000BF00BF00BF00BF00BF00BF00BF00BFE3
:1035F00000BF00BF00BF00BF00BFDFF8F4281268A3
:1036000032F40022DFF8E8381A60491C99E700BF5D
:1036100000BF00BF00BF00BF00BF00BF00BF00BFB2
:1036200000BF00BF00BF00BF00BF00BF00BF00BFA2
:1036300000BF00BF00BF00BF00BF00BF00BF00BF92
:1036400000BF00BF00BF00BF00BF00BF00BF00BF82
:1036500000BF00BF00BF00BF00BF00BF00BFDFF85A
:103660009428126852F00102DFF888381A6000BF0F
:1036700000BF00BF00BF00BF00BF00BF00BF00BF52
:1036800000BF00BFDFF86828126852F40022DFF89C
:1036900060381A6000BF00BF00BF00BF00BF00BF9E
:1036A00000BF00BF00BF00BF00BF00BF00BF00BF22
:1036B00000BF00BF00BF00BF00BF00BF00BF00BF12
:1036C00000BF00BF00BF00BF00BF00BF00BF00BF02
:1036D00000BF00BF00BF00BF00BF00BF00BF00BFF2
:1036E00000BF00BFDFF80828126832F40022DFF8BC
:1036F00000381A6070470000DFF8F027126852089F
:103700005200DFF8E8371A60DFF8DC27126852F45D
:103710000022DFF8D4371A6000221000DFF8D0272B
:10372000126832F40022DFF8C8371A6000BF00BF09
:1037300000BF00BF00BF00BF00BF00BF00BF00BF91
:1037400000BF00221100C9B2082956DA00BF00BF2D
:1037500000BF00BF00BF00BF00BF00BF00BF00BF71
:1037600000BFDFF88C27126832F40022DFF88037C0
:103770001A6000BF00BF00BF00BF00BF00BF00BF96
:1037800000BF00BF00BF00BF00BF00BF00BF00BF41
:1037900000BF00BF00BF00BF00BF00BF00BF00BF31
:1037A00000BF00BF00BF00BF00BF00BF00BF00BF21
:1037B00000BF00BF00BF00BF00BF00BF00BF00BF11
:1037C00000BFDFF82C27126852F40022DFF8203700
:1037D0001A6000BF00BF00BF00BF00BF00BF00BF36
:1037E00000BF00BF00BF00BF4000DFF8D02C126850
:1037F000D20700D5401C491CA5E7DFF8F426126863
:1038000032F40022DFF8E8361A60C0B2704770B5B3
:1038100004000D001600FFF74BFD2000C0B2FFF7BB
:103820007DFE2800C0B2FFF779FE3000C0B2FFF77E
:1038300075FEFFF7D3FD70BD70B504000D00642662
:10384000FFF736FD2000C0B2FFF768FE2800C0B2C7
:10385000FFF764FEFFF72CFD601CC0B2FFF75EFEB1
:10386000FFF74AFF0600FFF7B9FD3000C0B270BD98
:1038700070B504000D00002301221321022000F086
:1038800029FF002301220021032000F023FFADB215
:10389000280005280DD00A280ED014280FD02A2879
:1038A00010D0622811D0BC2812D0B0F5807F12D081
:1038B00014E00620060013E00520060010E00420B6
:1038C00006000DE0032006000AE00220060007E0E3
:1038D0000120060004E00020060001E002200600AE
:1038E00080226B21D020FFF792FF052000F054FFCB
:1038F0004FF47A70A4B290FBF4F0421ED2B21921B8
:10390000D020FFF784FF03226B21D020FFF77FFF39
:1039100002223721D020FFF77AFF3200D2B21A21DB
:10392000D020FFF774FF18221B21D020FFF76FFF74
:1039300010221C21D020FFF76AFF70BD10B53C217A
:10394000D020FFF779FFDFF8D41C08703B21D0208E
:10395000FFF772FFDFF8C41C4870DFF8C00C407836
:10396000DFF8B81C097851EA0024DFF8B40C0068CD
:1039700000F024FF201ADFF8AC1C08803E21D02084
:10398000FFF75AFFDFF8941C88703D21D020FFF725
:1039900053FFDFF8881CC870DFF8800CC078DFF8B0
:1039A0007C1C897851EA0024DFF8740C406800F030
:1039B00005FF201ADFF86C1C48804021D020FFF75B
:1039C0003BFFDFF8581C08713F21D020FFF734FF80
:1039D000DFF8481C4871DFF8440C4079DFF83C1CE4
:1039E000097951EA0024DFF8380C806800F0E6FE1F
:1039F000201ADFF8301C8880DFF8280CB0F90000AE
:103A000000F0FEFEDFF8201C0860DFF8180CB0F9AB
:103A1000020000F0F5FEDFF8101C4860DFF8040C2F
:103A2000B0F9040000F0ECFEDFF8FC1B886000F049
:103A300098F810BD1CB54421D020FFF7FDFEDFF83B
:103A4000DC1B88714321D020FFF7F6FEDFF8CC1B8A
:103A5000C871DFF8C80BC079DFF8C01B897951EA5B
:103A60000024DFF8C80B006800F0A8FE201AADF8AB
:103A700000004621D020FFF7DFFEDFF8A01B087210
:103A80004521D020FFF7D8FEDFF8901B4872DFF801
:103A90008C0B407ADFF8841B097A51EA0024DFF8A6
:103AA0008C0B406800F08AFE201AADF80200482115
:103AB000D020FFF7C1FEDFF8641B88724721D020B9
:103AC000FFF7BAFEDFF8541BC872DFF8500BC07A5C
:103AD000DFF8481B897A51EA0024DFF8500B806830
:103AE00000F06CFE201AADF80400BDF9000000F0F3
:103AF00087FEDFF83C1B0860BDF9020000F080FE85
:103B0000DFF82C1B4860BDF9040000F079FEDFF8F7
:103B1000201B886000F0A7F8DFF8140B0068DFF8BE
:103B2000141B00F095FE00F06FFDDFF80C1B086021
:103B3000DFF8FC0A4068DFF8FC1A00F089FE00F0AC
:103B400063FDDFF8F41A4860DFF8E40A8068DFF804
:103B5000E41A00F07DFE00F057FDDFF8DC1A886003
:103B600013BD80B5DFF8D40A007800287AD0DFF8DA
:103B7000D00A008800281CD10020DFF8A41A0860B1
:103B80000020DFF89C1A48600020DFF8941A886053
:103B90000020DFF8B01A08600020DFF8A81A48609B
:103BA0000020DFF8A01A88600120DFF8941A08804E
:103BB00058E0DFF8900A0168DFF86C0A006800F04E
:103BC000B3FE5FF0804100F0F1FEDFF8781A086084
:103BD000DFF8700A4168DFF8500A406800F0A4FE80
:103BE0005FF0804100F0E2FEDFF8581A4860DFF82D
:103BF000540A8168DFF8300A806800F095FE5FF0B3
:103C0000804100F0D3FEDFF83C1A8860DFF8300A0C
:103C10000088B0F5C87F1ED1DFF8280A0068DFF8F9
:103C2000001A0860DFF81C0A4068DFF8F4194860E1
:103C3000DFF8100A8168DFF8100A00F075FEDFF87F
:103C4000E01988600020DFF8F81908800020DFF80C
:103C5000EC19087006E0DFF8E8090088401CDFF87E
:103C6000E019088001BD80B5DFF8E0090078002880
:103C700076D0DFF8DC09008800281CD10020DFF8AE
:103C8000AC1908600020DFF8A41948600020DFF8B4
:103C90009C1988600020DFF8BC1908600020DFF85C
:103CA000B41948600020DFF8AC1988600120DFF803
:103CB000A019088054E0DFF89C090168DFF870095A
:103CC000006800F031FE5FF0804100F06FFEDFF829
:103CD00084190860DFF87C094168DFF854094068FE
:103CE00000F022FE5FF0804100F060FEDFF8641912
:103CF0004860DFF860098168DFF83409806800F007
:103D000013FE5FF0804100F051FEDFF84819886033
:103D1000DFF83C090088B0F57A7F1AD1DFF8340962
:103D20000068DFF808190860DFF828094068DFF844
:103D3000FC184860DFF81C098068DFF8F01888601C
:103D40000020DFF80C1908800020DFF80019087047
:103D500006E0DFF8FC080088401CDFF8F418088053
:103D600001BD80B5FFF7EAFDFFF764FE01BD10B5A8
:103D7000DFF8B4080168DFF8E00800F069FD04002E
:103D8000DFF8D8080168002000F062FD210000F093
:103D9000CBFD0400DFF8C8080168DFF8C80800F0B0
:103DA00057FD0100200000F07FFE0400DFF8B80896
:103DB0000168DFF8B80800F04BFD0100200000F0BA
:103DC00073FEDFF8AC180860DFF85C084168DFF8C4
:103DD000880800F03DFD0400DFF8800841680020FD
:103DE00000F036FD210000F09FFD0400DFF87008B0
:103DF0004168DFF8700800F02BFD0100200000F0A2
:103E000053FE0400DFF860084168DFF8600800F046
:103E10001FFD0100200000F047FEDFF85418486045
:103E2000DFF804088168DFF8300800F011FD0400B5
:103E3000DFF828088168002000F00AFD210000F06A
:103E400073FD0400DFF818088168DFF8180800F037
:103E5000FFFC0100200000F027FE0400DFF8080846
:103E60008168DFF8080800F0F3FC0100200000F092
:103E70001BFEDFF8FC178860DFF8AC070068DFF88E
:103E8000DC170860DFF8A0074068DFF8D01748604B
:103E9000DFF894078068DFF8C4178860DFF8C00790
:103EA0000068DFF8C4170860DFF8B4074068DFF87F
:103EB000B8174860DFF8A8078068DFF8AC1788609B
:103EC000DFF8AC070068DFF898170860DFF8A00794
:103ED0004068DFF88C174860DFF894078068DFF8E7
:103EE0008017886010BD000094F00F40D4F00F40A0
:103EF00080F00F40C0F00F4038B5040020005FF0A4
:103F0000804100F053FDDFF86C170860DFF86007B0
:103F10000068DFF864170860DFF854074068DFF8CE
:103F20005C170860DFF848078068DFF854170860FE
:103F3000DFF804070068DFF84C170860DFF8F806C0
:103F40004068DFF844170860DFF8EC068068DFF8A7
:103F50003C170860DFF820070168DFF81C070068DD
:103F600000F076FC0500DFF814070168DFF80C07A5
:103F7000006800F06DFC290000F0D6FC0500DFF8B9
:103F800000070168DFF8F806006800F061FC29000E
:103F900000F0CAFC00F0FCFD00F022FE00F098FEEC
:103FA000DFF8EC160860DFF8E8060068002100F092
:103FB000D7FE00F08182DFF8C0060068DFF8D01677
:103FC000096800F0F3FCDFF8B0160860DFF8AC0613
:103FD0000068DFF8BC16096800F0E8FCDFF89C1602
:103FE0000860DFF89C060068DFF8A416096800F096
:103FF000DDFCDFF88C160860DFF898064168DFF812
:104000009406C06800F024FC0500DFF8880601680B
:10401000DFF88006806800F01BFC0100280000F03B
:1040200043FD5FF0804100F013FCDFF86C16086080
:10403000DFF860060168DFF85C06406800F008FC05
:104040000500DFF850068168DFF84806C06800F018
:10405000FFFB290000F068FC5FF0804100F0F8FBF6
:10406000DFF838160860DFF82C064168DFF8240610
:10407000406800F0EDFB0500DFF818068168DFF806
:104080001406806800F0E4FB290000F04DFC5FF0AE
:10409000804100F0DDFB01005FF07E5000F004FD88
:1040A000DFF8FC150860DFF8D4050168DFF8F005DB
:1040B000006800F0CDFB0500DFF8C4050168DFF8FB
:1040C000DC05006800F0C4FB0100280000F0ECFCF7
:1040D000DFF8D0150860DFF8A8050168DFF8B8053B
:1040E000006800F0B5FB0500DFF88C050168DFF81B
:1040F000B005006800F0ACFB0100280000F0D4FC23
:10410000DFF8A4150860DFF870050168DFF88C059A
:10411000006800F09DFB0500DFF860050168DFF82E
:104120007805006800F094FB0100280000F0BCFC5A
:10413000DFF878150860DFF86C0501685FF07E50E5
:1041400000F086FBDFF83C15096800F0EDFBDFF8B6
:1041500034150860DFF8500501685FF07E5000F00C
:1041600077FBDFF82415096800F0DEFBDFF818158F
:104170000860DFF8380501685FF07E5000F068FBEA
:10418000DFF80815096800F0CFFBDFF800150860BC
:10419000DFF80005416891F00041DFF8E8040068AD
:1041A00000F056FB0500DFF8EC048168DFF8D80466
:1041B000006800F04DFB0100280000F075FC0500D0
:1041C000DFF8D004C168DFF8C404006800F040FBE9
:1041D0000100280000F068FCDFF89814096800F07E
:1041E00037FBDFF8B014096800F09EFBDFF8A41479
:1041F0000860DFF8A0040168DFF88804006800F0B8
:1042000027FB0500DFF88C048168DFF88004006874
:1042100000F01EFB290000F087FB0500DFF87404A6
:10422000C168DFF86404006800F012FB0100280098
:1042300000F03AFCDFF83C14096800F009FBDFF8F5
:104240005414496800F070FBDFF848144860DFF848
:1042500044040168DFF83004006800F0F9FA050052
:10426000DFF830044168DFF82404006800F0F0FA59
:104270000100280000F018FC0500DFF81804C168F0
:10428000DFF80004006800F0E3FA290000F04CFBBE
:10429000DFF8E013096800F0DBFADFF8F81389684B
:1042A00000F042FBDFF8EC138860DFF8E8030168F8
:1042B000DFF8D803006800F0CBFA0500DFF8D4037C
:1042C0004168DFF8C403006800F0C2FA290000F07A
:1042D0002BFB0500DFF8BC038168DFF8A80300684A
:1042E00000F0B6FA0100280000F0DEFBDFF88413CE
:1042F000096800F0ADFADFF89C13C96800F014FB00
:10430000DFF89013C860DFF88C030168DFF88403DE
:10431000006800F09DFA0500DFF878034168DFF8D7
:104320007403406800F094FA290000F0FDFA0500DB
:10433000DFF860038168DFF85C03806800F088FACA
:10434000290000F0F1FA0500D248C168D148C068E0
:1043500000F07EFA290000F0E7FA00F019FC00F006
:104360003FFC00F0B5FCCA490860C948006800215C
:1043700000F0F6FC00F0A080C6480068C449096857
:1043800000F014FBC3490860C2484068C04909688E
:1043900000F00CFBBF494860BE488068BC49096812
:1043A00000F004FBBB498860BA48C068B849096896
:1043B00000F0FCFAB749C86000F082F8B5488068A0
:1043C000002100F0CDFC0AD0B2488168B1484068B5
:1043D00000F0D4FCB64900F03BFAB649C860AD48DD
:1043E0004168AC48C06800F033FA0500A94801688C
:1043F000A848806800F02CFA0100280000F054FB67
:104400005FF0804100F024FAAB490860A1480168E0
:10441000A048406800F01CFA05009E4881689D484D
:10442000C06800F015FA290000F07EFA5FF08041C4
:1044300000F00EFAA04948609648416895484068E7
:1044400000F006FA0500934881689248806800F001
:10445000FFF9290000F068FA5FF0804100F0F8F9F8
:1044600001005FF07E5000F01FFB93498860924886
:1044700001689148006800F0EBF905008E4841683A
:104480008D48406800F0E4F9290000F04DFA00F092
:104490007FFB00F0A5FB00F01BFC0500290086480F
:1044A000806800F06BFC824900F0D2F9010083487B
:1044B00000F0FAFA7F49086131BD0000D0F00F40EA
:1044C00038B5744841687348406800F0C1F9040089
:1044D000704881686F48806800F0BAF9210000F0E8
:1044E00023FA5FF0804100F0B3F901005FF07E50E5
:1044F00000F0DAFA01000C0066480168654840687F
:1045000000F0A6F90500634881686248C06800F0C1
:104510009FF9290000F008FA5FF0804100F098F957
:10452000210000F02BFC00F074F862490860594843
:1045300001685848806800F08BF9040055484168CC
:104540005448C06800F084F90100200000F0ACFA83
:104550005FF0804100F07CF900F03AF800F059F883
:10456000544948604B4801684A48006800F070F9B7
:104570000400484841684748406800F069F9210054
:1045800000F0D2F95FF0804100F062F94C4900F090
:10459000CBF901000C003F4841683E48806800F0BC
:1045A00057F905003B4801683A48C06800F050F9E7
:1045B0000100280000F078FA5FF0804100F048F92F
:1045C000210000F0DBFB00F024F83A49886031BD9F
:1045D00010B50400200000F036FC022801D10020B4
:1045E00011E020005FF07E5100F042FC01D8354818
:1045F00009E02000344900F04DFC01D2334802E0CC
:10460000200000F059FC10BD80B5314900F020F9C0
:1046100002BD80B5264900F01BF902BDC432FF1F60
:10462000C034FF1FD032FF1FB434FF1FE434FF1F1C
:10463000D834FF1F8DC1793DCC34FF1F4404FF1FC8
:104640001060FF1FD832FF1F00F07FC54504FF1F19
:104650001260FF1FE432FF1F4FE2403EF032FF1FA7
:104660000833FF1F6808833FFC32FF1FA725593E10
:10467000A834FF1F1833FF1F4033FF1F4433FF1FB1
:104680004833FF1F3433FF1F3833FF1F3C33FF1FF6
:104690001433FF1FB431FF1F1C33FF1F2033FF1FD4
:1046A0002433FF1F2833FF1F2C33FF1F3033FF1F1E
:1046B000E12E6542F034FF1F1839FF1F0000B4429D
:1046C000000080BFDB0FC93FFEFF7FBFDB0FC9BF0C
:1046D00034FA8E3CF8B504000D0016001F00EDB250
:1046E000202D02D2FFB2022F03D32421274800F04D
:1046F0003BFC2748E4B250F82400EDB2F6B256F481
:10470000807140F82510F00705D5F6B2032E02D0CF
:10471000F6B2132E0DD11F48E4B250F824004069C0
:104720000121A94088431B49E4B251F82410486193
:104730002AE01848E4B250F8240040690121A94059
:1047400008431449E4B251F824104861FFB2012F24
:104750000DD11048E4B250F8240000680121A940AE
:1047600008430C49E4B251F8241008600CE00948F1
:10477000E4B250F8240000680121A94088430549AB
:10478000E4B251F824100860F1BD000070B50000DB
:104790003004FF1F1C04FF1F00231900814209D2AF
:1047A000054B1B681A00002A02D000BF521EFAE710
:1047B000491CF3E770470000DC5FFF1F4100090E52
:1047C0007F3915D4D1F11F0114D4400007D2C001A4
:1047D00040F00040C84048BF6FF000407047C00143
:1047E00040F00040C8404CBF4FF00040404270478E
:1047F0000020704700424FF0004058BFC043704750
:10480000002840F10780F446404200F003F850F0E1
:10481000004060470AD0B0FA80F18840D1F19D0194
:10482000C905020672F1004241EB1020704750F8B2
:10483000041B61B150F8042BD30744BFA9F1010355
:104840009A180023091F42F8043BFAD1EFE770479A
:10485000FF2212EAD05C1DBF12EAD1539445934265
:104860002BE09C44D30780EA01021A4043EA00206F
:1048700043EA0121A1FB0030410038BF40007CF138
:104880007F010BDBFE294ADA5B0842EAC15153EA99
:10489000006373F1004C51EB10207047D1F1080C0C
:1048A000DCF120012FDB5B0810FA01F10B4373F1FF
:1048B000004120FA0CF05041704794451CBF02EAB9
:1048C000D153934280EA010202F000421DD0400021
:1048D00019D0490017D05BB9634514D00902B1FA69
:1048E00081F39940BCEB030CC00140F00040C1E7EC
:1048F0000002B0FA80FC10FA0CF0B3EB0C0CC9010A
:1049000041F00041B6E71000704740000AD049006E
:1049100008D010F1807F94BF11F1807F02E042F057
:10492000FF407047D043704790EA010F44BF81F0C9
:10493000004100F0C1B800BF421A3CBF801A89187C
:104940004FF0004CC0F3C752FF2A24D0C1F3C75325
:1049500013B3D21AD2F1190327DD4CEA01214CFA24
:1049600003F321EA0303D140C20D4CEA00204018B2
:1049700034BF20EA0C004CEA5000D20553EA006331
:1049800073EB0C0C52EB1020420012F1807F38BF09
:104990007047C00DC0057047490212BF9A4200EB34
:1049A0005120F8E7D2F11703D9D5704710B5FF238E
:1049B00013EAD0541DBF13EAD1529C429A4239E007
:1049C000A41ADA0780EA0103134042EA012142EA0D
:1049D0000020421A3CBF641E01EB4202090AB2FBEE
:1049E000F1FE01FB1E221202B2FBF1F001FB1022CC
:1049F0006EF30F201202B2FBF1FE4EEA00207F346C
:104A000006DDFE2C24DA53EA500050EBC45010BDF2
:104A1000D4F1020401FB1E2240F08071192C1DDC30
:104A200021FA04F0C4F12004A140114371F10042C5
:104A3000584110BD9C421ABF03EAD1529A420FE07E
:104A400080EA010E0EF00043400004D0490016D168
:104A500043F0FF4010BD490008BFD343180010BD0C
:104A60009C4205D1D21AF7D001F00041484010BD58
:104A70004A0212BF0846484000F0004010BD4AB943
:104A80000902B1FA81F2914044B1A418C00140F08A
:104A900000409EE7C90141F0004152420002B0FAD5
:104AA00080F4A040141B94E790EA010F44BF81F00A
:104AB0000041FFF741BF00BF431A4FF000423EBF25
:104AC0005340C01AC91800BFD3095FEAD05C13EB8A
:104AD000400F34BFB3EB410F40E07CEBD1530CD31C
:104AE00042EA012122D8D1EB402009D3400A28BF55
:104AF0005FEA500140EBCC507047401A15D040029D
:104B0000B0FA80F2521C9040400A4FEA3C23B3EBCB
:104B1000026384BF00EB730007E040F400001A1644
:104B2000DB07C2F10102D04018437047182BFCDCB0
:104B300031FA03F202FA03F3591A38BF42F00102C4
:104B4000D2EB40203CBF4000ACF1010C5FEACC5CF2
:104B5000C20572F100414CEB5020704713EB400F3F
:104B60000FD24B0009D0ACEBD153022B03DB49022F
:104B7000172BDDDD70479143401A4300D5D100204B
:104B8000704713EB410FD0D36FF000007047000067
:104B90005FF0FF0C1CEAD05114BF614506E0C11064
:104BA000400721F0E04101F16051704779B900F010
:104BB000004100020AD0B0FA80FC00FA0CF001F1CA
:104BC0006051A1EB0C5101EBD0214005704741022F
:104BD0000CBF40F4E0016FF00001002070470000BE
:104BE00040F2FF7C0B0D4DD0634566D230B421EA14
:104BF000035141F4801103F2FD3C5FEA5C0C01D3E8
:104C000000184941890041EA907180004FF4401436
:104C10000023E202D50AB1F5100107D46D081DD2B8
:104C2000091B641900184941491BF7D56D080AD2C0
:104C30000919641B00184941491BEFD56D08F7D3CA
:104C400001E0520817D0C01861419B1AAC4100180E
:104C50004941801AA941F4D452080AD0C01AA1418E
:104C60009B186C4100184941801AA941E9D45208A7
:104C7000F4D15B1C6C4161084FEA330001EB0C512D
:104C800030BC704750EA0103FBD030B4B1FA81F375
:104C900011B9B0FA80F41B190B3BB3F120042FBFFC
:104CA00000FA04F19940C3F1200420FA04F438BF5B
:104CB00021439840D3F101039DE76345E1D011F50D
:104CC000801FDED850EA4101DBD0D94300F05CB947
:104CD0004FEAF17CBCF1E04C2CBFBCF5001F11E0A9
:104CE0005FEA4C0C34BFBCF17F5F2EE05FEA9C0CA6
:104CF0004FEA0C1C4FEA3C0CC10071F100414CEB37
:104D000050707047C90241EA5051C00218BF41F0CB
:104D1000010141F000414FEA6C50C0F10900212827
:104D200010D240EACC7CCCF1200C11FA0CF070F1DE
:104D30000040CCF1200C21FA0CF00CF0004C40EBC0
:104D40000C0070474FEACC707047490011F5001F06
:104D500004D84FEACC10FF30C0057047C817704721
:104D600040EA010C5FEA4C0C07D0884205D14FEABB
:104D7000400C1CF1807F98BF8042704738B50B46CD
:104D8000C3F3C751FF29024609D011B14FF0FF34D8
:104D900009E058020CBF00246FF0010403E0580240
:104DA00014BF02240124C2F3C751FF2908D011B156
:104DB0004FF0FF3108E0500206D06FF0010103E030
:104DC000500214BF02210121012CB8BF01291CDAB5
:104DD000002A46BF82F0004208250025002B44BF70
:104DE00083F0004385F006051846114600F052F89E
:104DF00002D2FFF7DBFD1FE0002C04D51046194658
:104E0000FFF7D4FD1AE0002018E0022901D1104676
:104E100032BD022C01D1184632BD8C420CBF4FF07E
:104E20007E500020002A4CBF08250025002B48BFDB
:104E300085F00605012901D185F002052946BDE866
:104E4000344000F0A7B8C0F3C751FF290AD011B110
:104E50004FF0FF307047400202D06FF00100704702
:104E600000207047400201D00220704701207047A7
:104E70004FF0807C1CEB400F94BF1CEB410F05E012
:104E800040EA010C5FEA4C0C01D28142704718BF26
:104E9000884270474FF0807C1CEB400F94BF1CEBA6
:104EA000410F05E040EA010C5FEA4C0C01D2884258
:104EB000704718BF8142704770B5C0F3C751FF29D2
:104EC00004460CD009B940020BD020460021FFF760
:104ED000E1FF3ABF84F000440825002503E04002CA
:104EE000F3D0204670BD20461D49FFF7D3FF12D2F4
:104EF0004FF07E502146FFF7D7FD06464FF07E501B
:104F00002146FFF711FD3146FFF7A2FC00F0BCF887
:104F10000146204616E01349FFF7BCFF19D24FF0B7
:104F20007E502146FFF7C0FD06464FF07E502146D9
:104F3000FFF7FAFC3146FFF78BFC00F0A5F885F08F
:104F400002052146FFF732FD2946BDE8704000F01A
:104F500021B800F0D3F8212101606FF0004070BD4E
:104F6000F404353F0100803F38B504000D0000F027
:104F7000CBF82A002100034800F0BDFB00F0EDF85B
:104F8000F7E700BFD8B600001FB500F0B7F8212141
:104F900001601FBDF8B50C462B49FFF769FF0546B8
:104FA00012D82A4E3146FFF753FC2949FFF7BCFCC3
:104FB000074628463146FFF7B7FC01463846FFF75B
:104FC000F5FC054644F0010428462249FFF762FF3C
:104FD00003D32149FFF74CFF21D82946FFF738FCBE
:104FE000064628463146FFF733FC1C49FFF730FCE4
:104FF0002946FFF799FC054619483146FFF728FC7A
:105000001849FFF791FC3146FFF722FC4FF07E5123
:10501000FFF78AFC01462846FFF7C8FC0546A007B3
:1050200048BF85F0004514F0070007D00FF23801A3
:1050300051F820002946FFF777FC0546200748BFB6
:1050400085F000452846F2BDA430893ED7B3DD3F48
:10505000000080BF000080B9010080396AD5033F9D
:105060002B94A93DB82A593F00000000920A063F40
:10507000DB0FC93F920A863FDB0FC93F920A064009
:10508000DB0F4940368D27404FF40002C10D23D07D
:10509000FF2929D230EAC15010437D31490828BF89
:1050A000001880004FF0C073B0F1906006D4520831
:1050B0000ED2C01A9B18D2EB4000F8D5520806D287
:1050C000C0189B1AD2EB4000F1D55208F8D35B1EF2
:1050D000580850EBC1507047B0FA80F10839884049
:1050E000F9D0D1F10101D8E7FF29F4D0D042F2D8AC
:1050F0004000F0D0C843FFF747BF0000014800F070
:1051000028BB00001860FF1F80B5012301220C217D
:105110000320FFF7DFFA012301220D210320FFF70F
:10512000D9FA012301220E210320FFF7D3FA01232C
:1051300001220F210320FFF7CDFA01BD1E4AD268DC
:105140001268012383409A43C9B211F001038340DE
:105150001A43194BDB681A60704710B5012301220E
:105160000C210320FFF7B6FA012301220D210320B1
:10517000FFF7B0FA012301220E210320FFF7AAFA5C
:10518000012301220F210320FFF7A4FA0C200400C1
:10519000E4B2102C0EDA00212000C0B2FFF7CEFFDF
:1051A0006420FFF7F9FA01212000C0B2FFF7C6FF23
:1051B000641CEDE710BD00001C04FF1F70B5040067
:1051C0000D0016003068012802D0022805D00AE040
:1051D0002000C0B27168884705E0B0680470B0680C
:1051E000401CB060FFE72868401C286070BD2DE9B6
:1051F000F04704005FF0000A5046A1465FF0000A45
:1052000089F800A019F10109002A1FD0D1F800A0E7
:105210005546002D05D15FF0300A89F800A0401CEA
:1052200038E0002D36D095FBF3FA564603FB165AAC
:105230005746002F02D5FF43313700E030373500A5
:1052400089F8007019F10109401CEAE7D1F800A0C3
:10525000D446BCF1000F05D15FF0300A89F800A0F8
:10526000401C17E0BCF1000F14D0BCFBF3FAD6468B
:1052700003FB1ECAD046B8F10A0F02D218F130085B
:1052800001E018F13708F44689F8008019F10109A6
:10529000401CE7E7BDE8F0872DE9F04104000D0070
:1052A00016001F00A046A84507DA3A00310030205A
:1052B000FFF784FF18F10108F5E7BDE8F0812DE95B
:1052C000F04104000D0016001F00A046A84507DAB3
:1052D0003A0031002020FFF771FF18F10108F5E7CF
:1052E000BDE8F0812DE9F24F92B0040015000020D6
:1052F0000090129883469BF80000019001980028C6
:1053000000F0F5810198252813D001980A2805D0CE
:10531000220000A90198FFF751FF09E0220000A92F
:105320000D20FFF74BFF220000A90A20FFF746FFE0
:10533000DAE100208146002004900498002822D160
:105340001BF1010B9BF8000020280ED0232812D05F
:105350002B2807D02D2802D0302809D00EE059F094
:105360000109EAE759F00209E7E759F00409E4E71F
:1053700059F00809E1E759F01009DEE7BBF1010B2C
:1053800001200490D9E70020824600200490049870
:10539000002814D11BF1010B9BF80000019001982B
:1053A0003038092806D80A20019900FB0A10B0F10C
:1053B000300AECE7BBF1010B01200490E7E71BF199
:1053C000010B9BF800002E2811D1002004900498B6
:1053D00000280ED11BF1010B9BF800003038092882
:1053E00000D8F4E7BBF1010B01200490EFE7BBF11B
:1053F000010B1BF1010B9BF800004C2806D068281C
:1054000002D06C2801D002E003E002E001E0BBF131
:10541000010B1BF1010B9BF800000190019858282B
:1054200075D0622800F0D580632800F01D816428C3
:1054300013D0692811D06E2800F04A816F2800F03F
:10544000BD80702800F0D080732800F01781752887
:1054500000F0D58078285AD041E128682D1D0690AB
:105460000A23012206A909A8FFF7C1FE070009A81F
:10547000381806000698002803D52D2003907F1CBD
:105480000FE05FEA897003D52B2003907F1C08E0B2
:105490005FEA497003D5202003907F1C01E00020C3
:1054A0000390002005905FEA097011D50398002849
:1054B00004D0220000A90398FFF780FE0120059088
:1054C000230000AA51463800FFF7E6FE574612E0D7
:1054D0005FEAC9700FD4230000AA51463800FFF7D5
:1054E000EEFE0398002804D0220000A90398FFF7DD
:1054F00065FE012005900598002807D10398002833
:1055000004D0220000A90398FFF758FE98E028680D
:105510002D1D02901023002202A909A8FFF767FEA3
:10552000070009A838180600002005905FEA0970F6
:1055300016D55FEAC9600BD5220000A93020FFF71D
:105540003DFE220000A97820FFF738FE01200590DB
:10555000230000AA51463800FFF79EFE57461BE085
:105560005FEAC97018D45FEAC96000D5BF1C230088
:1055700000AA51463800FFF7A2FE5FEAC9600BD5CA
:10558000220000A93020FFF719FE220000A9782090
:10559000FFF714FE012005905FEAC9600DD505985C
:1055A00000280AD1220000A93020FFF707FE2200C0
:1055B00000A97820FFF702FEBF1C41E028682D1DDE
:1055C00002900823002202A909A8FFF710FE070095
:1055D0001FE028682D1D02900223002202A909A8BD
:1055E000FFF705FE070014E028682D1D0290102328
:1055F000002202A909A8FFF7FAFD070009E02868C0
:105600002D1D02900A23002202A909A8FFF7EFFD31
:10561000070009A8381806005FEA097007D52300BB
:1056200000AA51463800FFF737FE574608E05FEA08
:10563000C97005D4230000AA51463800FFF73FFE89
:105640003078002806D0220000A93078FFF7B6FD98
:10565000761EF5E75FEAC97005D5230000AA51461A
:105660003800FFF72CFE3FE028682D1DC0B20790E0
:10567000220000A90798FFF7A1FD35E028682D1D3D
:105680008046B8F1000F22D0404600F063F80700D2
:105690005FEAC97005D4230000AA51463800FFF71D
:1056A0000EFE98F80000002808D0220000A998F803
:1056B0000000FFF783FD18F10108F2E75FEAC97007
:1056C00005D5230000AA51463800FFF7F8FD0BE08E
:1056D00028682D1D089000980899086004E02200B1
:1056E00000A90198FFF76AFD1BF1010B03E6009882
:1056F00013B0BDE8F08F0EB47EB504000120009019
:105700000648019007A805002A00210000A8FFF71D
:10571000E9FD060030007EBC5DF810FB45BE0000D0
:105720000CB4FEB504000D000027002C0DD00220A3
:105730000090029408A806003200290000A8FFF794
:10574000D1FD07000020029908703800FEBC5DF80A
:105750000CFB704701000A000023002A01D1002041
:1057600007E01000421C0078002801D05B1CF8E71D
:1057700018007047AF4800684FF4FA7190FBF1F0E1
:10578000032190FBF1F201FB1200C0B2002812D1FC
:10579000A949096831F08071A74A1160A6490968D2
:1057A00051F00071A44A1160A349096851F0806169
:1057B000A14A11602AE0C0B2012812D19E490968AD
:1057C00051F080719C4A11609B49096831F0007169
:1057D000994A11609849096851F08061964A1160B0
:1057E00014E0C0B2022811D19349096851F08071C8
:1057F000914A11609049096851F000718E4A116018
:105800008D49096831F080618B4A1160704770B52D
:1058100000268A484068FFF7BBF90022884B01F058
:10582000BDF8FFF755FADFF8BC1DC862DFF8B40D0C
:10583000C06A8449FFF71CFB05D85FF07E50DFF893
:10584000A41DC8620AE0DFF89C0DC06A7E49FFF71C
:1058500021FB03D27C48DFF88C1DC862DFF8840D81
:10586000C06AFFF795F901F0BDF9DFF87C2DDFF88C
:105870007C3D01F033FAFFF72BFADFF8681D48632F
:10588000DFF8600D406BDFF8681DFFF7F1FA05D80F
:10589000DFF8600DDFF84C1D48630CE0DFF8440DC5
:1058A000406BDFF8541DFFF7F5FA04D2DFF8480D1E
:1058B000DFF8301D4863DFF82C0D406BDFF8241D46
:1058C000C96BFFF7F1F85FF08041FFF76FF8060052
:1058D000DFF8280D0168DFF8280DFEF7B9FFDFF8C3
:1058E000041D4864DFF8FC0CC06BFFF751F904009D
:1058F0000D00DFF8F00C406C3100FFF715F8FFF7F2
:1059000047F9DFF8002DDFF8003D01F0E7F922004C
:105910002B0001F0B5FAFFF7DBF9DFF8C81CC8630C
:1059200046480068FFF734F90022DFF8E03C01F058
:1059300035F8FFF7CDF9DFF8AC1C0863DFF8A40CED
:10594000006B4049FFF794FA05D85FF07E50DFF80E
:10595000941C08630AE0DFF88C0C006B3A49FFF7EF
:1059600099FA03D23848DFF87C1C0863DFF8740C1E
:10597000006BFFF70DF901F035F9DFF86C2CDFF85B
:105980006C3C01F0ABF9FFF7A3F9DFF8581C886312
:10599000DFF8500C806BDFF8581CFFF769FA05D868
:1059A000DFF8500CDFF83C1C88630CE0DFF8340CA7
:1059B000806BDFF8441CFFF76DFA04D2DFF8380C77
:1059C000DFF8201C8863DFF81C0C806BDFF8141CE8
:1059D000096CFFF769F85FF08041FEF7E7FF06000A
:1059E000DFF8180C4168DFF8180CFEF731FFDFF81C
:1059F000F41B8864DFF8EC0B006CFFF7C9F80400B7
:105A00000D00DFF8E00B806C3100FEF78DFFFFF733
:105A1000BFF8DFF8F02BDFF8F03B01F05FF9220070
:105A20002B0001F02DFAFFF753F9DFF8B81B0864DB
:105A300070BD0000243AFF1F00F10F40A834FF1F83
:105A400000C072400100803F000080BFF8B5DFF861
:105A5000C00B0668DFF8B80B10EB8600D0F8B80072
:105A6000002810D1002E0CD00020DFF8A81BC86140
:105A7000DFF8A01B4861DFF89C1BC860DFF8941BAF
:105A8000486000F0AEBDDFF8880B10EB06108069AF
:105A9000FEF7B6FEDFF8781BC860DFF8740B10EB7A
:105AA0000610C069FEF7ACFEDFF8641B0861DFF882
:105AB000600B10EB0610006AFEF7A2FEDFF8501B29
:105AC0004861012E04D13C20DFF8181BC86461E056
:105AD000022E08D1DFF8380B10EB0610406ADFF811
:105AE000041BC86456E0032E0DD13C20DFF8F41AE5
:105AF000C864DFF81C0B10EB0610406ADFF8E41AEC
:105B0000C1F8740346E0042E3AD16420DFF8001B8C
:105B100011EB06118861DFF8F80A10EB06108069B6
:105B2000FEF76EFEDFF8E81AC8600020DFF8E01A22
:105B300011EB0611C861DFF8D80A10EB0610C06936
:105B4000FEF75EFEDFF8C81A0861C820DFF8C01A49
:105B500011EB06110862DFF8B80A10EB0610006AB4
:105B6000FEF74EFEDFF8A81A48610020DFF8741A2D
:105B70008862DFF8700A806ADFF8681A486209E014
:105B8000052E07D1DFF8880A10EB0610406ADFF80F
:105B9000541AC864012E04D0022E02D0042E40F004
:105BA0002381042E04D10020DFF8381A886132E006
:105BB000DFF8300ADFF82C1AC96C10EB8100D0F83E
:105BC000E001FEF7E5FF04000D00DFF84C0A006875
:105BD000DFF83C1A4968401A4000FEF711FEDFF872
:105BE0003C1AFEF735FE0700DFF8F809D0F870031D
:105BF000FEF706FE01003800FEF7D8FEFEF7C8FFEC
:105C000001F0B2F922002B0001F068F8FFF760F80C
:105C1000DFF8D0198861DFF8CC09006CDFF8C4190F
:105C20000862DFF8C009806AFEF7B2FF04000D00C9
:105C3000DFF8B009006ADFF8AC198969FEF734FFB4
:105C4000DFF8CC190969FEF703FEFEF7A1FF002279
:105C5000DFF8F43C00F0A2FE22002B0001F010F966
:105C6000FFF736F8DFF87C198862DFF8A40980684E
:105C7000FEF7C6FD0100DFF86C09806AFFF7F8F84F
:105C800007D8DFF88C098068FEF7BAFDDFF85419F1
:105C90008862DFF85009006ADFF848198969FEF761
:105CA00003FFDFF86C19C968FEF7D2FDDFF834197D
:105CB000896AFEF739FE0400DFF854094169DFF80C
:105CC0002409806CFEF7C4FD2100FEF72DFEDFF8ED
:105CD00044194860DFF83C09406890F00040DFF864
:105CE000341948610020DFF8FC184861DFF8F40837
:105CF000C06BDFF8F018C861DFF8E808406AFEF70B
:105D000047FF04000D00DFF8DC08C069DFF8D41895
:105D10004969FEF7C9FEDFF8F8180969FEF798FD32
:105D2000FEF736FF0022DFF8203C00F037FE2200AD
:105D30002B0001F0A5F8FEF7CBFFDFF8A8184862AA
:105D4000DFF8CC088068FEF75BFD0100DFF89408FF
:105D5000406AFFF78DF808D8DFF8B4088068FEF7CE
:105D60004FFDDFF88018486214E0DFF8A40880686F
:105D70004042FEF745FDDFF86C18496AFFF778F8F6
:105D800008D8DFF88C0880684042FEF739FDDFF85C
:105D900054184862DFF84C08C069DFF848184969B0
:105DA000FEF782FEDFF86818C968FEF751FDDFF8DC
:105DB0003418496AFEF7B8FD0400DFF85408416959
:105DC000DFF82008406CFEF743FD2100FEF7ACFD34
:105DD000DFF84018C860DFF83C08C06890F0004069
:105DE000DFF83018C861FCE3032E40F0BC81DFF817
:105DF000F407D0F8740301F0BBF80022DFF8483B49
:105E000000F06CFF04000D00DFF8D807DFF8D417AE
:105E1000D1F8741310EB8100D0F87C03FEF7B8FEC4
:105E200022002B0001F02CF800225FF0804300F0EC
:105E300055FF5FF0C042DFF8143B00F04FFF002237
:105E4000DFF80C3B00F0AAFD01F0A8F8FEF740FFD8
:105E5000DFF8001B0860DFF88C07D0F8740301F04E
:105E600087F80022DFF8E03A00F038FF04000D0068
:105E7000DFF87007DFF86C17D1F8741310EB8100AE
:105E8000D0F87C03FEF784FE22002B0000F0F8FF20
:105E900000225FF0804300F021FF5FF0C042DFF896
:105EA000AC3A00F01BFF0022DFF8A43A00F076FDC8
:105EB00001F05AF8FEF70CFFDFF89C1A0860DFF8D3
:105EC000940A0168DFF81C07DFF81827D26C10EB82
:105ED0008200D0F8E001FEF7BBFCFEF759FE04009B
:105EE0000D00DFF834070068DFF824174968401A0E
:105EF0004000FEF785FCDFF82417FEF7A9FC070039
:105F0000DFF8E006D0F87003FEF77AFC01003800F5
:105F1000FEF74CFDFEF73CFE01F026F822002B00B8
:105F200000F0DCFEFEF7D4FEDFF8B8168861DFF87B
:105F3000B406006CDFF8AC160862DFF8A806806AC9
:105F4000FEF726FE04000D00DFF89806006ADFF871
