:10000000F8FF0020110400009D9D0000CB9A000025
:100010009D9D00009D9D00009D9D00009D9D0000F8
:100020009D9D00009D9D00009D9D00009D9D0000E8
:100030009D9D00009D9D0000D99A0000C99A000076
:10004000099A00009D9D00009D9D00009D9D00005F
:100050009D9D00009D9D00009D9D00009D9D0000B8
:100060009D9D00009D9D00009D9D00009D9D0000A8
:100070009D9D00009D9D00009D9D00009D9D000098
:100080009D9D00009D9D00009D9D00009D9D000088
:100090009D9D00009D9D00009D9D00009D9D000078
:1000A0009D9D00009D9D00009D9D00009D9D000068
:1000B0009D9D00009D9D00009D9D00009D9D000058
:1000C0009D9D00009D9D00009D9D00009D9D000048
:1000D0009D9D00009D9D00009D9D00009D9D000038
:1000E0009D9D00009D9D00009D9D00009D9D000028
:1000F0009D9D00009D9D00009D9D00009D9D000018
:10010000B59A00009D9D00009D9D00009D9D0000F2
:100110009D9D00009D9D00009D9D00009D9D0000F7
:100120009D9D00009D9D00009D9D00009D9D0000E7
:100130009D9D00009D9D0000DB9A0000DD9A00005F
:100140009D9D00009D9D00009D9D00009D9D0000C7
:10015000239A00009D9D00009D9D00009D9D000034
:100160009D9D00009D9D00009D9D00009D9D0000A7
:100170009D9D00009D9D00009D9D00009D9D000097
:100180009D9D00009D9D00009D9D00009D9D000087
:100190009D9D00009D9D00009D9D00009D9D000077
:1001A000C99700009D9D0000A99900009D9D000039
:1001B0009D9D00009D9D00009D9D00009D9D000057
:1001C0009D9D00009D9D00009D9D00009D9D000047
:1001D0009D9D00009D9D00009D9D00009D9D000037
:1001E0009D9D00009D9D00009D9D00009D9D000027
:10040000FFFFFFFFFFFFFFFFFFFFFFFFFEFFFFFFFD
:1004100062B64FF000004FF000014FF000024FF0C5
:1004200000034FF000044FF000054FF000064FF0BE
:1004300000074FF000084FF000094FF0000A4FF09E
:10044000000B4FF0000C09F065FDFEE70080034053
:100450000090034000800B4000F00F4040F00F4040
:1004600080F00F40C0F00F4000F10F4000900440BA
:1004700000A0044000B0044000C0044000D004408C
:10048000010000000000000000000000000000006B
:10049000010000000000000000000000000000005B
:1004A000000000000000000000000000000000004C
:1004B000000000000000000000000000000000003C
:1004C000000000000000000000000000000000002C
:1004D000000000000000000000000000000000001C
:1004E000000000000000000000000000000000000C
:1004F00000000000000000000000000000000000FC
:1005000000000000000000000000000000000000EB
:1005100000000000000000000000000000000000DB
:1005200000000000000000000000000000000000CB
:1005300000000000000000000000000000000000BB
:1005400000000000000000000000000000000000AB
:100550000001FFE0000000000FFFFC000000003F72
:10056000FFFF00000000FFFFFFC0000001FFFFFFD2
:10057000E0000007FFFFFFF000000FFFFFFFF800A3
:10058000000FFFFFFFFC00001FFFC1FFFC00003F4A
:10059000FE007FFE00007FFC001FFF00007FF800D0
:1005A0000FFF0000FFF0000FFF8000FFE00007FFDB
:1005B0008001FFE00003FF8001FFC00003FFC001D6
:1005C000FFC00001FFC003FF800001FFC003FF80E8
:1005D0000001FFE003FF800000FFE007FF000000D4
:1005E000FFE007FF000000FFE007FF000000FFF052
:1005F00007FF0000007FF007FE0000007FF00FFE05
:100600000000007FF00FFE0000007FF00FFE0000F2
:10061000007FF00FFE0000007FF00FFE0000007F63
:10062000F00FFE0000003FF00FFE0000003FF80F4B
:10063000FC0000003FF80FFC0000003FF80FFC003A
:1006400000003FF80FFC0000003FF81FFC00000016
:100650003FF81FFC0000003FF81FFC0000003FF8BF
:100660001FFC0000003FF81FFC0000003FF81FFCCB
:100670000000003FF80FFC0000003FF80FFC0000F6
:10068000003FF00FFE0000003FF00FFE0000003FB3
:10069000F00FFE0000007FF00FFE0000007FF00F63
:1006A000FE0000007FF00FFE0000007FF00FFE0054
:1006B00000007FF00FFE0000007FE007FF00000059
:1006C0007FE007FF000000FFE007FF000000FFE001
:1006D00007FF000000FFE007FF800000FFC003FFEE
:1006E000800001FFC003FF800001FFC003FFC000C6
:1006F00003FF8001FFC00003FF8001FFE00007FF50
:100700000000FFF00007FF0000FFF0000FFE0000F8
:100710007FFC001FFE00007FFE007FFC00003FFF0B
:1007200081FFF800001FFFFFFFF800000FFFFFFF31
:10073000F000000FFFFFFFE0000003FFFFFFC0001D
:100740000001FFFFFF00000000FFFFFE00000000AF
:100750003FFFF00000000003FF80000000000000E9
:100760000000000000000000000000000000000089
:100770000000000000000000000000000000000079
:100780000000000000000000000000000000000069
:100790000000000000000000000000000000000059
:1007A0000000000000000000000000000000000049
:1007B0000000000000000000000000000000000039
:1007C0000000000000000000000000000000000029
:1007D0000000000000000000000000000000000019
:1007E0000000000000000000000000000000000009
:1007F00000000000000000000000000000000000F9
:1008000000000000000000000000000000000000E8
:1008100000000000000000000000000000000000D8
:1008200000000000000000000000000000000000C8
:1008300000000000000000000000000000000000B8
:1008400000000000000000000000000000000000A8
:100850000000000000000000000000000000000098
:100860000000000000000000000000000000000088
:100870000000000000000000000000000000000078
:100880000000000000000000000000000000000068
:100890000000000000000000000000000000000058
:1008A0000000000000000000000000000000000048
:1008B00000000000000000E0000000000007E00071
:1008C000000000007FE00000000003FFE0000000E7
:1008D000001FFFE000000000FFFFE00000000FFF2E
:1008E000FFE00000007FFFFFE0000000FFFFFFE0EF
:1008F000000000FFFFFFE0000000FFFFFFE000003E
:1009000000FFFFFFE0000000FFF8FFE0000000FF35
:10091000C0FFE0000000FC00FFE0000000E000FF7E
:10092000E00000000000FFE00000000000FFE00029
:1009300000000000FFE00000000000FFE0000000F9
:100940000000FFE00000000000FFE00000000000E9
:10095000FFE00000000000FFE00000000000FFE0FA
:100960000000000000FFE00000000000FFE00000C9
:10097000000000FFE00000000000FFE000000000B9
:1009800000FFE00000000000FFE00000000000FFAA
:10099000E00000000000FFE00000000000FFE000B9
:1009A00000000000FFE00000000000FFE000000089
:1009B0000000FFE00000000000FFE0000000000079
:1009C000FFE00000000000FFE00000000000FFE08A
:1009D0000000000000FFE00000000000FFE0000059
:1009E000000000FFE00000000000FFE00000000049
:1009F00000FFE00000000000FFE00000000000FF3A
:100A0000E00000000000FFE00000000000FFE00048
:100A100000000000FFE00000000000FFE000000018
:100A20000000FFE00000000000FFE0000000000008
:100A3000FFE00000000000FFE00000000000FFE019
:100A40000000000000FFE00000000000FFE00000E8
:100A5000000000FFE00000000000FFE000000000D8
:100A600000FFE00000000000FFE00000000000FFC9
:100A7000E00000000000FFE00000000000FFE000D8
:100A80000000FFFFFFFFFFE000FFFFFFFFFFE000B0
:100A9000FFFFFFFFFFE000FFFFFFFFFFE000FFFFA2
:100AA000FFFFFFE000FFFFFFFFFFE000FFFFFFFF92
:100AB000FFE000FFFFFFFFFFE0000000000000007C
:100AC0000000000000000000000000000000000026
:100AD0000000000000000000000000000000000016
:100AE0000000000000000000000000000000000006
:100AF00000000000000000000000000000000000F6
:100B000000000000000000000000000000000000E5
:100B100000000000000000000000000000000000D5
:100B200000000000000000000000000000000000C5
:100B300000000000000000000000000000000000B5
:100B400000000000000000000000000000000000A5
:100B50000000000000000000000000000000000095
:100B60000000000000000000000000000000000085
:100B70000000000000000000000000000000000075
:100B80000000000000000000000000000000000065
:100B90000000000000000000000000000000000055
:100BA0000000000000000000000000000000000045
:100BB0000000000000000000000000000000000035
:100BC0000000000000000000000000000000000025
:100BD0000000000000000000000000000000000015
:100BE0000000000000000000000000000000000005
:100BF00000000000000000000000000000000000F5
:100C000000000000000000000000000000000000E4
:100C100000000000000000000003FFE000000000F2
:100C20001FFFFC00000000FFFFFF80000003FFFF2C
:100C3000FFC0000007FFFFFFF000001FFFFFFFF8ED
:100C400000003FFFFFFFFC00007FFFFFFFFE0000F2
:100C5000FFFE01FFFE0000FFF0003FFF0000FF80ED
:100C6000001FFF0000FF00000FFF8000FC000007D6
:100C7000FF8000F8000003FFC000E0000001FFC09B
:100C800000C0000001FFC00000000001FFC0000024
:100C9000000001FFC00000000000FFC000000000D5
:100CA00000FFC00000000000FFC00000000000FFC7
:100CB000C00000000000FFC00000000000FFC000F6
:100CC00000000001FFC00000000001FFC0000000A4
:100CD0000001FF800000000001FF80000000000311
:100CE000FF800000000003FF000000000007FF007D
:100CF0000000000007FF00000000000FFE000000E1
:100D000000001FFE00000000001FFC0000000000AB
:100D10003FF800000000007FF80000000000FFF036
:100D20000000000000FFE00000000001FFC0000024
:100D3000000003FFC00000000007FF80000000006B
:100D40000FFF00000000001FFE00000000003FFC3D
:100D500000000000007FF80000000000FFF000002D
:100D6000000001FFE00000000003FFC000000000E1
:100D700007FF80000000000FFF00000000001FFEC2
:100D800000000000003FFC00000000007FF80000B1
:100D9000000000FFF00000000001FFE00000000084
:100DA00003FFC00000000007FF80000000000FFFED
:100DB00000000000001FFE00000000003FFC0000DB
:100DC0000000007FF80000000000FFF000000000BD
:100DD00001FFE00000000003FFC00000000007FF6B
:100DE00080000000000FFFFFFFFFFFC00FFFFFFFAD
:100DF000FFFFC00FFFFFFFFFFFC00FFFFFFFFFFF61
:100E0000C00FFFFFFFFFFFC00FFFFFFFFFFFC00F7F
:100E1000FFFFFFFFFFC00FFFFFFFFFFFC00000004D
:100E200000000000000000000000000000000000C2
:100E300000000000000000000000000000000000B2
:100E400000000000000000000000000000000000A2
:100E50000000000000000000000000000000000092
:100E60000000000000000000000000000000000082
:100E70000000000000000000000000000000000072
:100E80000000000000000000000000000000000062
:100E90000000000000000000000000000000000052
:100EA0000000000000000000000000000000000042
:100EB0000000000000000000000000000000000032
:100EC0000000000000000000000000000000000022
:100ED0000000000000000000000000000000000012
:100EE0000000000000000000000000000000000002
:100EF00000000000000000000000000000000000F2
:100F000000000000000000000000000000000000E1
:100F100000000000000000000000000000000000D1
:100F200000000000000000000000000000000000C1
:100F300000000000000000000000000000000000B1
:100F400000000000000000000000000000000000A1
:100F50000000000000000000000000000000000091
:100F60000000000000000000000000000000000081
:100F7000000000000000000000000000000FFF0063
:100F800000000000FFFFF000000007FFFFFC000072
:100F9000001FFFFFFF0000003FFFFFFF8000007FFA
:100FA000FFFFFFC000007FFFFFFFE000007FFFFFAB
:100FB000FFF000007FF00FFFF800007F8001FFF8D6
:100FC00000007C00007FFC00007800003FFC000077
:100FD0006000001FFE00000000001FFE0000000077
:100FE000000FFE00000000000FFE00000000000FD8
:100FF000FE00000000000FFE00000000000FFE00D9
:10100000000000000FFE00000000000FFE000000C6
:1010100000000FFE00000000000FFE0000000000B6
:101020000FFC00000000000FFC00000000001FFC8F
:1010300000000000003FF800000000003FF8000042
:101040000000007FF00000000001FFE00000000051
:1010500007FFC0000000007FFF80000007FFFFFFC8
:1010600000000007FFFFFC00000007FFFFF000008A
:101070000007FFFF8000000007FFFFF800000007E7
:10108000FFFFFF00000007FFFFFFC0000007FFFF9A
:10109000FFE0000000003FFFF00000000003FFF849
:1010A0000000000000FFFC00000000003FFE000008
:1010B0000000001FFF00000000000FFF0000000004
:1010C0000007FF800000000003FF80000000000315
:1010D000FF800000000003FF800000000001FFC04F
:1010E0000000000001FFC00000000001FFC0000080
:1010F000000001FFC00000000001FFC00000000070
:1011000001FFC00000000001FFC00000000003FF5D
:10111000800000000003FF800000000003FF80004B
:1011200000000007FF80030000000FFF0003C00065
:10113000001FFF0003E000003FFE0003F800007FF7
:10114000FE0003FE0001FFFC0003FFE00FFFF800BC
:1011500003FFFFFFFFF00003FFFFFFFFE00001FFC1
:10116000FFFFFFC00000FFFFFFFF8000007FFFFFC9
:10117000FE0000001FFFFFF800000007FFFFE00077
:101180000000007FFC0000000000000000000000E4
:10119000000000000000000000000000000000004F
:1011A000000000000000000000000000000000003F
:1011B000000000000000000000000000000000002F
:1011C000000000000000000000000000000000001F
:1011D000000000000000000000000000000000000F
:1011E00000000000000000000000000000000000FF
:1011F00000000000000000000000000000000000EF
:1012000000000000000000000000000000000000DE
:1012100000000000000000000000000000000000CE
:1012200000000000000000000000000000000000BE
:1012300000000000000000000000000000000000AE
:10124000000000000000000000000000000000009E
:10125000000000000000000000000000000000008E
:10126000000000000000000000000000000000007E
:10127000000000000000000000000000000000006E
:10128000000000000000000000000000000000005E
:10129000000000000000000000000000000000004E
:1012A000000000000000000000000000000000003E
:1012B000000000000000000000000000000000002E
:1012C000000000000000000000000000000000001E
:1012D000000000000000000000000000000000000E
:1012E00000000000000000000000FFF0000000000F
:1012F00001FFF00000000003FFF00000000003FF0A
:10130000F00000000007FFF0000000000FFFF000F9
:101310000000000FFFF0000000001FFFF0000000C1
:10132000003FFFF0000000003FFFF0000000007FE2
:10133000FFF000000000FFFFF000000000FFFFF0E2
:1013400000000001FFBFF000000003FFBFF000003D
:101350000003FF3FF000000007FE3FF00000000F19
:10136000FE3FF00000000FFC3FF00000001FF83FC0
:10137000F00000003FF83FF00000003FF03FF000B9
:1013800000007FE03FF00000007FE03FF000000041
:10139000FFC03FF0000001FF803FF0000001FF8030
:1013A0003FF0000003FF003FF0000007FE003FF0A9
:1013B000000007FE003FF000000FFC003FF00000BF
:1013C0001FF8003FF000001FF8003FF000003FF062
:1013D000003FF000007FE0003FF000007FE0003FB2
:1013E000F00000FFC0003FF00001FF80003FF00070
:1013F00001FF80003FF00003FF00003FF00007FE08
:1014000000003FF00007FE00003FF0000FFC00006E
:101410003FF0001FF800003FF0001FF800003FF011
:10142000003FF000003FF0007FE000003FF0007F51
:10143000FFFFFFFFFFFCFFFFFFFFFFFFFCFFFFFFC2
:10144000FFFFFFFCFFFFFFFFFFFFFCFFFFFFFFFFB2
:10145000FFFCFFFFFFFFFFFFFCFFFFFFFFFFFFFCA5
:10146000FFFFFFFFFFFFFC000000003FF000000057
:1014700000003FF000000000003FF000000000000E
:101480003FF000000000003FF000000000003FF0CF
:1014900000000000003FF000000000003FF00000EE
:1014A0000000003FF000000000003FF000000000DE
:1014B000003FF000000000003FF000000000003F8F
:1014C000F000000000003FF000000000003FF000CE
:1014D000000000003FF000000000003FF0000000AE
:1014E00000003FF0000000000000000000000000CD
:1014F00000000000000000000000000000000000EC
:1015000000000000000000000000000000000000DB
:1015100000000000000000000000000000000000CB
:1015200000000000000000000000000000000000BB
:1015300000000000000000000000000000000000AB
:10154000000000000000000000000000000000009B
:10155000000000000000000000000000000000008B
:10156000000000000000000000000000000000007B
:10157000000000000000000000000000000000006B
:10158000000000000000000000000000000000005B
:10159000000000000000000000000000000000004B
:1015A000000000000000000000000000000000003B
:1015B000000000000000000000000000000000002B
:1015C000000000000000000000000000000000001B
:1015D000000000000000000000000000000000000B
:1015E00000000000000000000000000000000000FB
:1015F00000000000000000000000000000000000EB
:1016000000000000000000000000000000000000DA
:1016100000000000000000000000000000000000CA
:1016200000000000000000000000000000000000BA
:1016300000000000000000000000000000000000AA
:1016400000000000000000000000003FFFFFFFFE60
:1016500000003FFFFFFFFE00003FFFFFFFFE000016
:101660003FFFFFFFFE00003FFFFFFFFE00003FFFC8
:10167000FFFFFE00003FFFFFFFFE00003FFFFFFFF8
:10168000FE00003FF000000000003FF000000000FE
:10169000003FF000000000003FF000000000003FAD
:1016A000F000000000003FF000000000003FF000EC
:1016B000000000003FF000000000003FF0000000CC
:1016C00000003FF000000000003FF00000000000BC
:1016D0003FF000000000003FF000000000003FF07D
:1016E00000000000003FF000000000003FF000009C
:1016F0000000003FF000000000003FF0000000008C
:10170000003FF000000000003FF000000000003F3C
:10171000FFFF000000003FFFFFF00000003FFFFF61
:10172000FE0000003FFFFFFF8000003FFFFFFFC003
:1017300000003FFFFFFFE000003FFFFFFFF0000061
:101740003FFFFFFFF8000038001FFFFC0000000013
:1017500001FFFE00000000007FFE00000000003FCF
:10176000FF00000000001FFF00000000000FFF80CE
:101770000000000007FF800000000003FF80000061
:10178000000003FFC00000000001FFC000000000D7
:1017900001FFC00000000001FFC00000000001FFC9
:1017A000C00000000001FFC00000000001FFC000F9
:1017B00000000001FFC00000000001FFC0000000A9
:1017C0000001FFC00000000001FFC0000000000198
:1017D000FFC00000000003FF800000000003FF8046
:1017E0000000000007FF800000000007FF800000ED
:1017F00000000FFF0001C000001FFF0001F000000B
:101800003FFE0001FC0000FFFE0001FF0001FFFCA5
:101810000001FFE01FFFF80001FFFFFFFFF00001E4
:10182000FFFFFFFFE00001FFFFFFFFC00000FFFF21
:10183000FFFF8000003FFFFFFE0000001FFFFFF8DA
:1018400000000007FFFFE0000000007FFE00000036
:101850000000000000000000000000000000000088
:101860000000000000000000000000000000000078
:101870000000000000000000000000000000000068
:101880000000000000000000000000000000000058
:101890000000000000000000000000000000000048
:1018A0000000000000000000000000000000000038
:1018B0000000000000000000000000000000000028
:1018C0000000000000000000000000000000000018
:1018D0000000000000000000000000000000000008
:1018E00000000000000000000000000000000000F8
:1018F00000000000000000000000000000000000E8
:1019000000000000000000000000000000000000D7
:1019100000000000000000000000000000000000C7
:1019200000000000000000000000000000000000B7
:1019300000000000000000000000000000000000A7
:101940000000000000000000000000000000000097
:101950000000000000000000000000000000000087
:101960000000000000000000000000000000000077
:101970000000000000000000000000000000000067
:101980000000000000000000000000000000000057
:101990000000000000000000000000000000000047
:1019A0000000000000000000000007FFC000000071
:1019B000003FFFF800000001FFFFFE00000007FFEE
:1019C000FFFF0000000FFFFFFF0000003FFFFFFFD1
:1019D0000000007FFFFFFF000000FFFFFFFF00008F
:1019E00001FFFF00FF000003FFF8001F000003FFDE
:1019F000E00007000007FFC0000000000FFF8000AC
:101A00000000000FFF00000000001FFE00000000AB
:101A1000003FFC00000000003FF800000000007FD5
:101A2000F800000000007FF000000000007FE000F0
:101A300000000000FFE00000000000FFE0000000E8
:101A40000001FFC00000000001FFC0000000000115
:101A5000FF800000000001FF800000000003FF8005
:101A60000000000003FF800000000003FF803FF83B
:101A7000000003FF01FFFF800003FF07FFFFE000FE
:101A800007FF0FFFFFF00007FF1FFFFFFC0007FF2E
:101A90003FFFFFFE0007FF7FFFFFFF0007FFFFFF85
:101AA000FFFF0007FFFFC07FFF8007FFFE001FFF53
:101AB000C007FFFC0007FFC007FFF80003FFE007B7
:101AC000FFF00001FFE007FFE00001FFE007FFC0BB
:101AD0000000FFF007FFC000007FF007FF8000005C
:101AE0007FF007FF8000007FF007FF8000007FF895
:101AF00007FF0000003FF807FF0000003FF807FF66
:101B00000000003FF807FF0000003FF807FF00005B
:101B1000003FF803FF0000003FF803FF0000003F14
:101B2000F803FF8000003FF803FF8000003FF00350
:101B3000FF8000007FF001FF8000007FF001FFC008
:101B400000007FF001FFC00000FFE000FFE00000A8
:101B5000FFE000FFF00001FFE0007FF00003FFC0A6
:101B6000007FF80007FFC0003FFC000FFF80003F30
:101B7000FF001FFF80001FFFC0FFFF00000FFFFFDF
:101B8000FFFE000007FFFFFFFC000003FFFFFFF860
:101B9000000001FFFFFFF0000000FFFFFFC000009A
:101BA000003FFFFF800000000FFFFC00000000016D
:101BB000FFE0000000000000000000000000000046
:101BC0000000000000000000000000000000000015
:101BD0000000000000000000000000000000000005
:101BE00000000000000000000000000000000000F5
:101BF00000000000000000000000000000000000E5
:101C000000000000000000000000000000000000D4
:101C100000000000000000000000000000000000C4
:101C200000000000000000000000000000000000B4
:101C300000000000000000000000000000000000A4
:101C40000000000000000000000000000000000094
:101C50000000000000000000000000000000000084
:101C60000000000000000000000000000000000074
:101C70000000000000000000000000000000000064
:101C80000000000000000000000000000000000054
:101C90000000000000000000000000000000000044
:101CA0000000000000000000000000000000000034
:101CB0000000000000000000000000000000000024
:101CC0000000000000000000000000000000000014
:101CD0000000000000000000000000000000000004
:101CE00000000000000000000000000000000000F4
:101CF00000000000000000000000000000000000E4
:101D000000000000000000000000000000000000D3
:101D100000000FFFFFFFFFFFF00FFFFFFFFFFFF0CF
:101D20000FFFFFFFFFFFF00FFFFFFFFFFFF00FFFB1
:101D3000FFFFFFFFF00FFFFFFFFFFFE00FFFFFFFC1
:101D4000FFFFE00FFFFFFFFFFFC00000000001FFEB
:101D5000C00000000001FF800000000001FF8000C3
:101D600000000003FF800000000003FF00000000EF
:101D70000007FF000000000007FE00000000000751
:101D8000FE00000000000FFE00000000000FFC003D
:101D9000000000001FFC00000000001FF800000011
:101DA00000001FF800000000003FF80000000000E5
:101DB0003FF000000000007FF000000000007FE026
:101DC0000000000000FFE00000000000FFE0000055
:101DD000000000FFC00000000001FFC00000000084
:101DE00001FF800000000003FF800000000003FFEF
:101DF000800000000003FF000000000007FF00005B
:101E000000000007FE00000000000FFE00000000C0
:101E1000000FFE00000000000FFC00000000001F8B
:101E2000FC00000000001FF800000000003FF80068
:101E3000000000003FF800000000007FF0000000FC
:101E400000007FF000000000007FE00000000000C4
:101E5000FFE00000000000FFE00000000001FFC004
:101E60000000000001FFC00000000001FF80000032
:101E7000000003FF800000000003FF80000000005E
:101E800007FF000000000007FF000000000007FE41
:101E900000000000000FFE00000000000FFE000028
:101EA0000000001FFC00000000001FFC00000000FC
:101EB000003FF800000000003FF800000000003F75
:101EC000F800000000007FF000000000007FF0003C
:101ED00000000000FFE00000000000FFE000000044
:101EE0000000FFE00000000001FFC0000000000152
:101EF000FFC00000000003FF800000000003FF801F
:101F00000000000003FF800000000007FF00000049
:101F100000000000000000000000000000000000C1
:101F200000000000000000000000000000000000B1
:101F300000000000000000000000000000000000A1
:101F40000000000000000000000000000000000091
:101F50000000000000000000000000000000000081
:101F60000000000000000000000000000000000071
:101F70000000000000000000000000000000000061
:101F80000000000000000000000000000000000051
:101F90000000000000000000000000000000000041
:101FA0000000000000000000000000000000000031
:101FB0000000000000000000000000000000000021
:101FC0000000000000000000000000000000000011
:101FD0000000000000000000000000000000000001
:101FE00000000000000000000000000000000000F1
:101FF00000000000000000000000000000000000E1
:1020000000000000000000000000000000000000D0
:1020100000000000000000000000000000000000C0
:1020200000000000000000000000000000000000B0
:1020300000000000000000000000000000000000A0
:102040000000000000000000000000000000000090
:102050000000000000000000000000000000000080
:102060000000000000000000000000000000000070
:102070000001FFE0000000001FFFFE000000007FE5
:10208000FFFF80000001FFFFFFC0000007FFFFFF10
:10209000F000000FFFFFFFF800001FFFFFFFFC0034
:1020A000003FFFFFFFFE00003FFF80FFFE00007FBC
:1020B000FE003FFF0000FFF8001FFF0000FFF000E0
:1020C00007FF8000FFE00007FF8001FFE00003FF43
:1020D0008001FFC00003FF8001FFC00003FFC001BB
:1020E000FFC00001FFC001FFC00001FFC001FFC031
:1020F0000001FFC001FFC00001FFC001FFC00001DF
:10210000FF8001FFC00003FF8001FFC00003FF80CC
:1021100000FFE00003FF8000FFE00007FF0000FF7A
:10212000F0000FFF00007FF8000FFE00007FFC00B2
:102130001FFC00003FFE007FFC00001FFF00FFF8B7
:1021400000000FFFC3FFF0000007FFFFFFE00000EB
:1021500003FFFFFF80000000FFFFFF000000007F83
:10216000FFFC000000001FFFF0000000003FFFFC2C
:1021700000000000FFFFFF00000003FFFFFFC000A2
:102180000007FFFFFFF000000FFFEFFFF800003F28
:10219000FF81FFFC00007FFE00FFFE0000FFFC004F
:1021A0003FFF0000FFF0001FFF8001FFE00007FF7E
:1021B0008003FFC00003FFC003FF800001FFC003D6
:1021C000FF800001FFE007FF000000FFE007FF00C5
:1021D0000000FFE007FE0000007FF00FFE0000009F
:1021E0007FF00FFE0000007FF00FFE0000007FF088
:1021F0000FFE0000007FF00FFE0000007FF00FFEDA
:102200000000007FF00FFE0000007FF00FFF0000D5
:10221000007FF007FF000000FFE007FF800001FFE4
:10222000E007FFC00001FFE003FFE00003FFC00381
:10223000FFF0000FFFC001FFFC001FFF8001FFFF48
:1022400000FFFF0000FFFFFFFFFF00007FFFFFFF19
:10225000FE00003FFFFFFFFC00001FFFFFFFF0003C
:102260000007FFFFFFE0000003FFFFFF800000000A
:102270007FFFFC000000000FFFC000000000000016
:10228000000000000000000000000000000000004E
:10229000000000000000000000000000000000003E
:1022A000000000000000000000000000000000002E
:1022B000000000000000000000000000000000001E
:1022C000000000000000000000000000000000000E
:1022D00000000000000000000000000000000000FE
:1022E00000000000000000000000000000000000EE
:1022F00000000000000000000000000000000000DE
:1023000000000000000000000000000000000000CD
:1023100000000000000000000000000000000000BD
:1023200000000000000000000000000000000000AD
:10233000000000000000000000000000000000009D
:10234000000000000000000000000000000000008D
:10235000000000000000000000000000000000007D
:10236000000000000000000000000000000000006D
:10237000000000000000000000000000000000005D
:10238000000000000000000000000000000000004D
:10239000000000000000000000000000000000003D
:1023A000000000000000000000000000000000002D
:1023B000000000000000000000000000000000001D
:1023C000000000000000000000000000000000000D
:1023D000000000000003FFC0000000003FFFF80005
:1023E000000000FFFFFE00000003FFFFFF80000071
:1023F00007FFFFFFC000000FFFFFFFE000001FFF0F
:10240000FFFFF000003FFFFFFFF800007FFF83FFAA
:10241000FC0000FFFC007FFC0000FFF8003FFE0016
:1024200001FFE0001FFF0003FFC0000FFF0003FFDC
:10243000C00007FF8003FF800003FF8007FF00004C
:1024400003FF8007FF000001FFC007FF000001FF3E
:10245000C00FFE000000FFC00FFE000000FFC00F15
:10246000FE000000FFE00FFE000000FFE00FFE0096
:102470000000FFE00FFE0000007FE00FFE00000004
:102480007FE00FFE0000007FE00FFE0000007FF005
:102490000FFE0000007FF00FFE000000FFF00FFFB6
:1024A000000000FFF007FF000000FFF007FF000042
:1024B00001FFF007FF800001FFF007FF800003FF2E
:1024C000F003FFC00007FFF003FFE0000FFFF00183
:1024D000FFF0001FFFF001FFFC003FFFF000FFFFD7
:1024E00081FFFFF0007FFFFFFFFFF0003FFFFFFFD6
:1024F000FFF0001FFFFFFF7FE0000FFFFFFE7FE008
:102500000007FFFFFC7FE00001FFFFF07FE000001D
:102510007FFFE07FE000000FFE007FE00000000092
:1025200000FFE00000000000FFC00000000000FF0E
:10253000C00000000000FFC00000000001FFC0005C
:1025400000000001FF800000000001FF800000008B
:102550000003FF800000000003FF80000000000374
:10256000FF000000000007FF00000000000FFE0059
:10257000000000000FFE00000000001FFC00000033
:1025800000003FFC00000000007FF8000000000099
:10259000FFF00000E00001FFF00000F80007FFE09E
:1025A0000000FF803FFFC00000FFFFFFFF80000032
:1025B000FFFFFFFF000000FFFFFFFE000000FFFF26
:1025C000FFFC000000FFFFFFF00000007FFFFFC0E6
:1025D0000000000FFFFF0000000001FFF0000000FE
:1025E00000000000000000000000000000000000EB
:1025F00000000000000000000000000000000000DB
:1026000000000000000000000000000000000000CA
:1026100000000000000000000000000000000000BA
:1028900000000000000000000000001010101010E8
:1028A000100010100000000000000024242400008C
:1028B000000000000000000000000024247E24240A
:1028C000247E242400000000000000107C90907CF6
:1028D00012127C100000000000000000626408106A
:1028E000204C8C0000000000000000001824205044
:1028F0008A844A3000000000000000101020000010
:10290000000000000000000000000810202020202F
:1029100020202010080000000000201008080808EF
:1029200008080810200000000000000000105438C3
:102930003854100000000000000000000010107C5F
:102940001010000000000000000000000000000067
:102950000000101020000000000000000000007CBB
:102960000000000000000000000000000000000067
:102970000000001000000000000000000002040839
:1029800010204000000000000000003844444C5477
:1029900064444438000000000000001030101010A3
:1029A0001010103800000000000000384404040833
:1029B0001020407C000000000000007C040810385B
:1029C00004040478000000000000000818284848AB
:1029D0007C080808000000000000007C40404078AF
:1029E00004040478000000000000003C40404078EF
:1029F00044444438000000000000007C0404081037
:102A0000202020200000000000000038444444380A
:102A10004444443800000000000000384444443C72
:102A20000404043800000000000000000000001052
:102A30000000100000000000000000000000000086
:102A4000100010102000000000000000000408101A
:102A50002010080400000000000000000000007CBE
:102A6000007C0000000000000000000000201008B2
:102A7000040810200000000000003844440408103E
:102A80001000101000000000000000000038445C3E
:102A9000545C403C00000000000018244242427E8A
:102AA000424242420000000000007C4242427C421E
:102AB0004242427C0000000000003C424040404056
:102AC0004040423C0000000000007C424242424242
:102AD0004242427C0000000000007E4040407840BE
:102AE0004040407E0000000000007E4040407840B2
:102AF000404040400000000000003C4240405E4238
:102B00004242423C000000000000424242427E42FB
:102B10004242424200000000000038101010101025
:102B2000101010380000000000001C0808080808F9
:102B3000080848300000000000004244485060602F
:102B400050484442000000000000404040404040E7
:102B50004040407E0000000000008282C6C6AAAA53
:102B60009292828200000000000042626252524A49
:102B70004A4646420000000000003C4242424242B7
:102B80004242423C0000000000007C424242427C43
:102B9000404040400000000000003C4242424242AF
:102BA00042424A3C0E00000000007C424242427C0D
:102BB000504844420000000000003C4240403C02BB
:102BC0000202423C0000000000007C1010101010B7
:102BD0001010101000000000000042424242424229
:102BE0004242423C00000000000044444444282883
:102BF00028101010000000000000828282825454CD
:102C00005428282800000000000042422418181808
:102C10002424424200000000000044444444282888
:102C2000101010100000000000007E0202040810C6
:102C30002040407E0000000000003820202020209E
:102C4000202020380000000000000000000040208C
:102C5000100804020000000000001C040404040426
:102C60000404041C000000000000000010284400C0
:102C70000000000000000000000000000000000054
:102C800000000000FF00000000000010100800001D
:102C90000000000000000000000000000078043C7C
:102CA0004444443A0000000000004040405C62425E
:102CB0004242625C0000000000000000003C424014
:102CC0004040423C0000000000000202023A46423E
:102CD0004242463A0000000000000000003C424230
:102CE0007E40423C0000000000000E1010103C101E
:102CF000101010100000000000000000003E4242D2
:102D000042423E02023C000000004040405C624201
:102D1000424242420000000000000008000808088B
:102D20000808080800000000000000040004040473
:102D30000404040444380000000040404042444879
:102D400050684442000000000000101010101010E5
:102D500010101010000000000000000000EC929223
:102D6000929292920000000000000000007C42421B
:102D7000424242420000000000000000003C42428B
:102D80004242423C0000000000000000005C624241
:102D90004242625C4040000000000000003A4642AF
:102DA0004242463A0202000000000000005C62401D
:102DB000404040400000000000000000003C424055
:102DC0003C02423C0000000000000020207820204F
:102DD0002020221C000000000000000000424242AF
:102DE0004242423E00000000000000000042424219
:102DF000424224180000000000000000008282828D
:102E00009292AA4400000000000000000042422408
:102E1000182442420000000000000000004242422C
:102E200042423E02023C000000000000007E02041C
:102E30001820407E00000000000008101010204004
:102E400020101010080000000010101010101010BA
:102E500010101010101010000000201010100804A6
:102E60000810101020000000000000000000225494
:102E700088000000000000000000000000000000CA
:102E80000000000000000000C8AB000100010002CB
:102E9000800440082010102FE8C106010001001F27
:102EA000F00100010001007FFC0000B6AF0000400F
:102EB00000407C40004001FC0044FE44204420448B
:102EC000208448844484FD04450402280410B5E7A6
:102ED000000100010001003FF8210821083FF8210E
:102EE00008210821083FF821080102010200FE0024
:102EF00000D7D30000003FF0002000400080010018
:102F000001000104FFFE01000100010001000100B9
:102F100005000200BFC6000608788808480848FE79
:102F20000818881C482A48280E48788B8808080802
:102F300008080808080808BCBC0010201020102051
:102F4000FDFE1020142019FC3108D088109010606C
:102F500010601090110E56042000D3D00001000123
:102F6000007FFE020004000FF0181028104FF088B8
:102F70001008100FF00810089008700820CFDE002D
:102F80000000FBF8920893F8A208A20893F88A8040
:102F90008A48AA50922082208210828E8304820066
:102FA000B9AB00000004400640044008200810109F
:102FB00018220E430402000420081011F83F1810D4
:102FC000100000CBBE0000003FFC000400047FE4C2
:102FD000000400043FC4204420443FC42044200493
:102FE000001400080000D7A800010001003FF8020B
:102FF000000200FFFE040008200FF0002000400245
:10300000800100008000400000D2B5000440044070
:10301000044004444446244C244814501C5014607A
:10302000044004400444FFFE00000000BFAA00006A
:10303000007FFE0420042004200420FFFE0420045E
:10304000200420082008201020202040200000B765
:10305000A20002002240223022107FFE2400040041
:1030600007E00C200A200A20114020804160861CC5
:103070001808B0E500101C11E011001100FD00114E
:10308000FC3984354855485230921012301448109B
:103090008E11040000B9A40000003FFC01000100F3
:1030A0000100010001000100010001000100010018
:1030B0000100FFFE00000000BFD80010001020102B
:1030C00010FDFE11041050148C19043000D1FC10B6
:1030D0002010201020102053FE2000C9E8004000DE
:1030E00021F03110211001100110E20E25F8210805
:1030F00021082090209028603090230E0C04B1B855
:103100000008000FF0082014202240418002400CEB
:1031100030301EDFF411101FF0111011101FF010CD
:1031200010BCBC00102010201020FDFE1020142028
:1031300019FC3108D0881090106010601090110EAA
:1031400056042000CAF5000100012001100100FF13
:10315000FE010003800540052009101118210EC151
:1031600004010001000000D6A700010001000100D9
:103170007FFE010001001FF8081004200420024017
:10318000018002400C30700E0004B3D600104010D5
:103190004013FCFC40104017FE1410181037FED0EE
:1031A00010111010D01090101050502020C2DB00D1
:1031B0004040204030A0209001080206E504211084
:1031C000213821C0210025002904310420FC000001
:1031D000CCB300000011FC100010001000FC001324
:1031E000FE1040106010801C883104C27E07C602A9
:1031F00004000000000000000100000000000000CA
:1032000000000000000000000000000000000000BE
:1032100000000000000000000000000000000000AE
:10322000000000000000000000000000000000009E
:10323000000000000000000000000000000000008E
:1037000000000000000000000000000007000000B2
:1037100003000000000000000000000000000000A6
:103720000000000000000000000000000000000099
:103730000000000000000000000000000000803FCA
:103740000000000000000000000000000B1F00004F
:1037500000090000010000000DC1110009030CD098
:103760001240173F185019031A783200A00A63E07C
:10377000ACFF650C6600670029502C782A007E0C8F
:103780007F16802A814E8261836F847B8586868E38
:10379000879788A489AF8AC58BD78CE88D204A008B
:1037A000491347084B144C17460522992303A604D6
:1037B0009B009C50AB069E119F0200003100000050
:1037C00000000000000000000000000000000000F9
:1037D00000000000000000000000000000000000E9
:1037E00000000000000000000000000000000000D9
:1037F00000000000000000000000000000000000C9
:1038000000A0064000B0064000C0064000D00640C0
:1038100000A00E4000B00E40DFF8600E416941F498
:1038200000214161416D41F001014165016831F4C0
:103830000021016000BF016C51F00101016400BF73
:1038400000BF00BF00BF00BF00BF00BF00BF00BF80
:1038500000BF00BF016851F40021016000BF00BF3C
:1038600000BF00BF00BF00BF00BF00BF00BF00BF60
:1038700000BF00BF00BF00BF00BF00BF00BF00BF50
:1038800000BF00BF00BF00BF00BF00BF00BF00BF40
:1038900000BF00BF00BF00BF00BF00BF00BF00BF30
:1038A00000BF00BF00BF00BF00BF00BF016C4908E0
:1038B0004900016400BF00BF00BF00BF00BF00BFE0
:1038C00000BF00BF00BF00BF00BF00BF00BF00BF00
:1038D00000BF00BF00BF00BF00BF00BF00BF00BFF0
:1038E00000BF00BF00BF00BF00BF00BF00BF00BFE0
:1038F00000BF00BF00BF00BF00BF00BF00BF00BFD0
:1039000000BF00BF80E00000DFF8700D416941F4A6
:1039100000214161416D41F001014165016831F4CF
:103920000021016000BF00BF00BF00BF00BF00BF9B
:1039300000BF00BF00BF00BF00BF016C49084900C5
:10394000016400BF00BF00BF00BF00BF00BF00BFD9
:1039500000BF00BF00BF00BF016851F4002101603B
:1039600000BF00BF00BF00BF00BF00BF00BF00BF5F
:1039700000BF00BF00BF00BF00BF00BF00BF00BF4F
:1039800000BF00BF00BF00BF00BF00BF00BF00BF3F
:1039900000BF00BF00BF00BF00BF00BF00BF00BF2F
:1039A00000BF00BF00BF00BF00BF00BF00BF00BF1F
:1039B000016C51F00101016400BF00BF00BF00BFF6
:1039C00000BF00BF00BF00BF00BF00BF00BF00BFFF
:1039D00000BF00BF00BF00BF00BF00BF00BF00BFEF
:1039E00000BF00BF00BF00BF00BF00BF00BF00BFDF
:1039F00000BF00BF00BF00BF00BF00BF00BF00BFCF
:103A000000BF00BF00BF00BF016821F400210160BA
:103A100070470000DFF8641C4A6942F400224A61E2
:103A20004A6D52F001024A6500BF00220B6823F480
:103A300000230B6000FA02F31B060B6C02D553F057
:103A4000010301E05B085B000B6400BF00BF00BF27
:103A500000BF00BF00BF00BF00BF00BF00BF00BF6E
:103A60000B6853F400230B6000BF00BF00BF00BF12
:103A700000BF00BF00BF00BF00BF00BF00BF00BF4E
:103A800000BF00BF00BF00BF00BF00BF00BF00BF3E
:103A900000BF00BF00BF00BF00BF00BF00BF00BF2E
:103AA00000BF00BF00BF00BF00BF00BF00BF00BF1E
:103AB00000BF00BF00BF00BF0B68521CD2B223F48E
:103AC0000023082A0B60B1DB00BF00BF00BF00BFAE
:103AD00000BF00BF00BF00BF00BF00BF00BF00BFEE
:103AE00000BF00BF00BF00BF00BF00BF00BF00BFDE
:103AF00000BF00BF00BF00BF00BF00BF00BF00BFCE
:103B000000BF00BF00BF00BF00BF00BF00BF00BFBD
:103B100000BF00BF00BF00BF086C50F00100086488
:103B200000BF00BF00BF00BF00BF00BF00BF00BF9D
:103B300000BF00BF00BF086850F40020086000BF4D
:103B400000BF00BF00BF00BF00BF00BF00BF00BF7D
:103B500000BF00BF00BF00BF00BF00BF00BF00BF6D
:103B600000BF00BF00BF00BF00BF00BF00BF00BF5D
:103B700000BF00BF00BF00BF00BF00BF00BF00BF4D
:103B800000BF00BF00BF00BF00BF00BF00BF08688C
:103B900020F4002008607047DFF8E01A486D400804
:103BA00040004865486940F40020486100200A68E8
:103BB00032F400220A6000BF00BF00BF00BF00BF98
:103BC00000BF00BF00BF00BF00BF00BF082200BF92
:103BD00000BF00BF00BF00BF00BF00BF00BF00BFED
:103BE00000BF00BF0B6833F400230B6000BF00BFB1
:103BF00000BF00BF00BF00BF00BF00BF00BF00BFCD
:103C000000BF00BF00BF00BF00BF00BF00BF00BFBC
:103C100000BF00BF00BF00BF00BF00BF00BF00BFAC
:103C200000BF00BF00BF00BF00BF00BF00BF00BF9C
:103C300000BF00BF00BF00BF00BF00BF0B6853F450
:103C400000230B6000BF00BF00BF00BF00BF00BF6C
:103C500000BF00BF00BF00BF00BF0B6D4000DB070F
:103C600048BF401C521E002AB1D10A6822F400222B
:103C70000A60C0B2704738B504460D4600230122E1
:103C80001321022000F0C0FD0023012200210320A7
:103C900000F0BAFD052D0BD00A2D0BD0142D0BD042
:103CA0002A2D0BD0BC2D0BD0B5F5807F0AD00BE0B0
:103CB00006250AE0052508E0042506E0032504E0C2
:103CC000012502E0002500E00225FFF7A5FDD02038
:103CD000FFF7A0FE6B20FFF79DFE8020FFF79AFE06
:103CE000FFF712FE052000F0BDFDFFF795FDD02087
:103CF000FFF790FE1920FFF78DFE4FF47A7090FBCE
:103D0000F4F0401EC0B2FFF785FEFFF7FDFDFFF7A0
:103D100083FDD020FFF77EFE6B20FFF77BFE0320A4
:103D2000FFF778FEFFF7F0FDFFF776FDD020FFF7F5
:103D300071FE3720FFF76EFE0220FFF76BFEFFF7E4
:103D4000E3FDFFF769FDD020FFF764FE1A20FFF7BF
:103D500061FE2846FFF75EFEFFF7D6FDFFF75CFD2C
:103D6000D020FFF757FE1B20FFF754FE1820FFF767
:103D700051FEFFF7C9FDFFF74FFDD020FFF74AFEC8
:103D80001C20FFF747FE1020FFF744FEBDE831403E
:103D9000BAE570B5FFF740FDD020FFF73BFE3C20B1
:103DA000FFF738FEFFF738FDD120FFF733FEFFF7AE
:103DB000F3FE0546FFF7A8FDDFF8E8492570FFF799
:103DC0002BFDD020FFF726FE3B20FFF723FEFFF759
:103DD00023FDD120FFF71EFEFFF7DEFE0646FFF7AC
:103DE00093FD66702078DFF8C05940EA06262868FF
:103DF00000F046FD301AA081FFF70EFDD020FFF73E
:103E000009FE3E20FFF706FEFFF706FDD120FFF773
:103E100001FEFFF7C1FE0646FFF776FDA670FFF72D
:103E2000FBFCD020FFF7F6FD3D20FFF7F3FDFFF789
:103E3000F3FCD120FFF7EEFDFFF7AEFE0646FFF7DD
:103E400063FDE670A07840EA0626686800F018FD79
:103E5000301AE081FFF7E0FCD020FFF7DBFD4020C7
:103E6000FFF7D8FDFFF7D8FCD120FFF7D3FDFFF710
:103E700093FE0646FFF748FD2671FFF7CDFCD020E4
:103E8000FFF7C8FD3F20FFF7C5FDFFF7C5FCD120B8
:103E9000FFF7C0FDFFF780FE0646FFF735FD6671B0
:103EA000207940EA0626A86800F0EAFC351AB4F941
:103EB0000C00DFF8F868258200F004FD3060B4F9EA
:103EC0000E0000F0FFFC706028B200F0FBFCB06058
:103ED000BDE87040BFE02DE9F041FFF79DFCD02028
:103EE000FFF798FD4420FFF795FDFFF795FCD120E3
:103EF000FFF790FDFFF750FE0546FFF705FDDFF8E1
:103F0000A448A571FFF788FCD020FFF783FD43206C
:103F1000FFF780FDFFF780FCD120FFF77BFDFFF767
:103F20003BFE0646FFF7F0FCE671A079DFF880580B
:103F300040EA0626286800F0A3FC361AFFF76CFC5E
:103F4000D020FFF767FD4620FFF764FDFFF764FC14
:103F5000D120FFF75FFDFFF71FFE0746FFF7D4FCF8
:103F60002772FFF759FCD020FFF754FD4520FFF7DB
:103F700051FDFFF751FCD120FFF74CFDFFF70CFE80
:103F80000746FFF7C1FC207A677240EA0727686896
:103F900000F076FC3F1AFFF73FFCD020FFF73AFD18
:103FA0004820FFF737FDFFF737FCD120FFF732FD40
:103FB000FFF7F2FD8046FFF7A7FC84F80A80FFF7C1
:103FC0002BFCD020FFF726FD4720FFF723FDFFF74E
:103FD00023FCD120FFF71EFDFFF7DEFD8046FFF733
:103FE00093FCA07A84F80B8040EA0824A86800F0CB
:103FF00047FC241A30B200F065FCDFF8B8670546CC
:10400000356038B200F05EFC706020B200F05AFCFF
:10401000B06000F066F8DFF8A087DFF8A047DFF8AF
:10402000A0772846414600F075FC394600F072FC46
:1040300020604146706800F06DFC394600F06AFC73
:1040400060604146B06800F065FC394600F062FCF3
:10405000A060BDE8F0812DE9F041DFF868472078E5
:1040600000283CD0658855B9DFF83C57002028600F
:104070006860A8606060A060E06001202EE0DFF86A
:104080002C676168306800F0B1FC4FF07C5100F0A3
:1040900041FCA16807467068676000F0A7FC4FF01C
:1040A0007C5100F037FC8046E168B068C4F80880B5
:1040B00000F09CFC4FF07C5100F02CFCB5F5C87F63
:1040C000E0600AD1DFF8E056DFF8FC162F60C5F893
:1040D000048000F08BFCA86045E0681C6080BDE8AF
:1040E000F0812DE9F041DFF8E4462078002838D04F
:1040F000658855B9DFF8B816002008604860886008
:104100006060A060E06001202AE0DFF8A8666168D6
:10411000306800F06BFC4FF07C5100F0FBFBA168B5
:1041200007467068676000F061FC4FF07C5100F05A
:10413000F1FB8046E168B068C4F8088000F056FCE6
:104140004FF07C5100F0E6FBB5F57A7FE06006D1D8
:10415000DFF85C1688600F60C1F8048003E0681C1B
:104160006080BDE8F081002060802070BDE8F081B3
:1041700080B5FFF70EFEBDE80140ACE62DE9F84F33
:10418000DFF82866DFF848963068DFF84846DFF841
:104190004886DFF848A6DFF848560027494600F071
:1041A000B9FB83462868002100F0B4FB594600F0B3
:1041B0001DFC8346A869514600F0ACFB01465846F9
:1041C00000F056FC8346E868414600F0A3FB014638
:1041D000584600F04DFC20604946706800F09AFB9C
:1041E00083466868394600F095FB594600F0FEFBAF
:1041F0008346E869514600F08DFB0146584600F0C1
:1042000037FC83462869414600F084FB0146584646
:1042100000F02EFC60604946B06800F07BFB8146F0
:10422000A868394600F076FB494600F0DFFB0746F8
:10423000286A514600F06EFB0146384600F018FC33
:1042400007466869414600F065FB0146384600F0C4
:104250000FFCA0603068286070686860B068A86073
:10426000A869E860E8692861286A68612068A8612F
:104270006068E861A0682862BDE8F18F2DE9F84F19
:10428000DFF860454FF07C5100F044FB6060DFF8E0
:104290004405056846688768DFF8200501682162E3
:1042A000E56226636763416880686162A0622946AF
:1042B000284600F02FFB80463046314600F02AFBAE
:1042C000414600F093FB80463846394600F022FB19
:1042D000414600F08BFB00F03FFC00F065FC00F075
:1042E000DBFC002100F020FD2060804600F0C3814F
:1042F0002846414600F026FDE0624146304600F087
:1043000021FD064626633846414600F01BFDDFF8D6
:10431000D85469688246E868C4F834A000F0FAFA14
:1043200007462968A86800F0F5FA0146384600F00B
:104330009FFB4FF0804100F0EDFA0746296868685E
:10434000A76000F0E7FA8046A968E86800F0E2FAA2
:10435000414600F04BFB4FF0804100F0DBFA69680A
:10436000D5F808908046C4F80C80084600F0D2FAD0
:1043700083464846494600F0CDFA594600F036FBE0
:104380004FF0804100F0C6FA01464FF07E5000F039
:104390006FFB8346C4F810B03046594600F0BAFAB5
:1043A00081465046414600F0B5FA0146484600F0C5
:1043B0005FFB8146C4F814905046394600F0AAFAD3
:1043C0008246E06A594600F0A5FA0146504600F0E0
:1043D0004FFB8246E06AC4F818A0414600F09AFA02
:1043E00080463046394600F095FA0146404600F0D6
:1043F0003FFB8046206AC4F81C80494600F0F6FA6C
:104400000646606A2662514600F0F0FA0746A06A46
:104410006762414600F0EAFAD5F804B0D5F8089092
:104420008046C4F828805846314600F073FA80F080
:10443000004A4846394600F06DFA0146504600F001
:1044400017FB8246E868414600F064FA0146504690
:1044500000F00EFB616800F05DFA296800F0C6FA12
:104460008246C5F800A0314600F054FA009041465B
:10447000484600F04FFA009900F0B8FA009039462B
:10448000E86800F047FA0146009800F0F1FA616828
:1044900000F040FA594600F0A9FA8346C5F804B086
:1044A0005046394600F036FA00904146584600F032
:1044B00031FA0146009800F0DBFA00903146E868D6
:1044C00000F028FA009900F091FA616800F022FAF1
:1044D000494600F08BFA8146C5F80890504641469F
:1044E00000F018FA80465846394600F013FA414663
:1044F00000F07CFA07464846314600F00BFA0146C8
:10450000384600F0B5FA616800F004FAE96800F096
:104510006DFA0646EE605046514600F0FBF907463C
:104520005846594600F0F6F9394600F05FFA07465A
:104530004846494600F0EEF9394600F057FA07467A
:104540003046314600F0E6F9394600F04FFA00F007
:1045500003FB00F029FB00F09FFB002100F0E4FBCF
:104560002060044600F087802868214600F0EAFBBE
:1045700028602146686800F0E5FB68602146A8686D
:1045800000F0E0FBA8602146E86800F0DBFBE86093
:1045900000F076F8AA681046002100F0C5FB934CA5
:1045A000934E07D06868114600F04AFC314600F08F
:1045B000B1F9E0606968E86800F0ACF9296807467D
:1045C000A86800F0A7F90146384600F051FA4FF00C
:1045D000804100F09FF90746DFF818822968686873
:1045E000C8F8007000F096F98146A968E86800F004
:1045F00091F9494600F0FAF94FF0804100F08AF94C
:104600006968D5F808A08146C8F80490084600F00B
:1046100081F905465046514600F07CF9294600F0E4
:10462000E5F94FF0804100F075F901464FF07E50FA
:1046300000F01EFA0546C8F808503846394600F022
:1046400069F907464846494600F064F9394600F0E2
:10465000CDF900F081FA00F0A7FA00F01DFB014649
:10466000284600F0EDFB314600F054F9014662485F
:1046700000F0FEF92061BDE8F18F000080F00F40EE
:104680002DE9F843584C594D6668A768DFF86081FA
:104690003046314600F03EF981463846394600F052
:1046A00039F9494600F0A2F94FF0804100F032F9A3
:1046B00001464FF07E5000F0DBF98146206831461C
:1046C00000F028F90646E068394600F023F9314643
:1046D00000F08CF94FF0804100F01CF9494600F0E1
:1046E000AFFB414600F016F928602168A06800F091
:1046F00011F961680746E06800F00CF90146384698
:1047000000F0B6F94FF0804100F004F9074600F0E0
:10471000FCFB022808BF002012D038464FF07E5123
:1047200000F008FC98BF34480AD9344900F014FC62
:1047300038BF334804D300F021FC414600F0EAF8CA
:104740006860266867683046314600F0E3F88146C5
:104750003846394600F0DEF8494600F047F94FF098
:10476000804100F0D7F8274900F040F98146A06861
:10477000394600F0CFF80746E068314600F0CAF845
:104780000146384600F074F94FF0804100F0C2F85D
:10479000494600F055FB414600F0BCF8A860BDE872
:1047A000F18300001838FF1FE039FF1FD439FF1FC5
:1047B000043AFF1FF839FF1F8DC1793DEC39FF1F07
:1047C00034FA8E3C4404FF1F00F07FC55404FF1FE1
:1047D0004FE2403EC839FF1FA725593E6808833F76
:1047E0002C38FF1F5038FF1F0037FF1FC031FF1F3D
:1047F000E12E6542103AFF1F0000B442FEFF7FBF6A
:104800000000B4C2000080BF70B4154C04EB8005FA
:1048100042F480766D6945F82160D50703D5032AF7
:1048200018BF132A0AD154F820004269012303FA61
:1048300001F122EA0101416170BC704754F8200087
:10484000012202FA01F142690A434261012B026826
:104850000CBF114322EA0101016070BC70470000E7
:104860001C04FF1F48B105490968002903D000BF97
:10487000491E0029FBD1401EF5D17047CC5FFF1FB8
:104880004100090E7F3915D4D1F11F0114D4400025
:1048900007D2C00140F00040C84048BF6FF0004060
:1048A0007047C00140F00040C8404CBF4FF000408E
:1048B000404270470020704700424FF0004058BF10
:1048C000C0437047002840F10780F446404200F0A2
:1048D00003F850F0004060470AD0B0FA80F18840F9
:1048E000D1F19D01C905020672F1004241EB102091
:1048F000704750F8041B61B150F8042BD30744BF34
:10490000A9F101039A180023091F42F8043BFAD1C8
:10491000EFE77047FF2212EAD05C1DBF12EAD153C5
:10492000944593422BE09C44D30780EA01021A404D
:1049300043EA002043EA0121A1FB0030410038BFD7
:1049400040007CF17F010BDBFE294ADA5B0842EA7A
:10495000C15153EA006373F1004C51EB10207047D2
:10496000D1F1080CDCF120012FDB5B0810FA01F11A
:104970000B4373F1004120FA0CF05041704794450D
:104980001CBF02EAD153934280EA010202F00042C6
:104990001DD0400019D0490017D05BB9634514D031
:1049A0000902B1FA81F39940BCEB030CC00140F05D
:1049B0000040C1E70002B0FA80FC10FA0CF0B3EB43
:1049C0000C0CC90141F00041B6E7100070474000EF
:1049D0000AD0490008D010F1807F94BF11F1807F88
:1049E00002E042F0FF407047D043704790EA010F69
:1049F00044BF81F0004100F043B800BF421A3CBF01
:104A0000801A89184FF0004CC0F3C752FF2A24D0F7
:104A1000C1F3C75313B3D21AD2F1190327DD4CEAFD
:104A200001214CFA03F321EA0303D140C20D4CEA01
:104A30000020401834BF20EA0C004CEA5000D20598
:104A400053EA006373EB0C0C52EB1020420012F19E
:104A5000807F38BF7047C00DC0057047490212BF44
:104A60009A4200EB5120F8E7D2F11703D9D57047ED
:104A700090EA010F44BF81F00041FFF7BFBF00BFC4
:104A8000431A4FF000423EBF5340C01AC91800BF3E
:104A9000D3095FEAD05C13EB400F34BFB3EB410F97
:104AA00040E07CEBD1530CD342EA012122D8D1EB78
:104AB000402009D3400A28BF5FEA500140EBCC50A8
:104AC0007047401A15D04002B0FA80F2521C904054
:104AD000400A4FEA3C23B3EB026384BF00EB730050
:104AE00007E040F400001A16DB07C2F10102D040D3
:104AF00018437047182BFCDC31FA03F202FA03F377
:104B0000591A38BF42F00102D2EB40203CBF4000AE
:104B1000ACF1010C5FEACC5CC20572F100414CEBD8
:104B20005020704713EB400F0FD24B0009D0ACEB75
:104B3000D153022B03DB4902172BDDDD7047914374
:104B4000401A4300D5D10020704713EB410FD0D35A
:104B50006FF00000704700005FF0FF0C1CEAD051BE
:104B600014BF614506E0C110400721F0E04101F1AA
:104B70006051704779B900F0004100020AD0B0FAE4
:104B800080FC00FA0CF001F16051A1EB0C5101EB3B
:104B9000D0214005704741020CBF40F4E0016FF0A6
:104BA000000100207047000040F2FF7C0B0D4DD04B
:104BB000634566D230B421EA035141F4801103F217
:104BC000FD3C5FEA5C0C01D300184941890041EAD1
:104BD000907180004FF440140023E202D50AB1F531
:104BE000100107D46D081DD2091B64190018494132
:104BF000491BF7D56D080AD20919641B00184941F1
:104C0000491BEFD56D08F7D301E0520817D0C01843
:104C100061419B1AAC4100184941801AA941F4D462
:104C200052080AD0C01AA1419B186C410018494192
:104C3000801AA941E9D45208F4D15B1C6C41610887
:104C40004FEA330001EB0C5130BC704750EA0103CE
:104C5000FBD030B4B1FA81F311B9B0FA80F41B196A
:104C60000B3BB3F120042FBF00FA04F19940C3F1CC
:104C7000200420FA04F438BF21439840D3F1010303
:104C80009DE76345E1D011F5801FDED850EA410170
:104C9000DBD0D94300F0CAB94FEAF17CBCF1E04C5B
:104CA0002CBFBCF5001F11E05FEA4C0C34BFBCF117
:104CB0007F5F2EE05FEA9C0C4FEA0C1C4FEA3C0C35
:104CC000C10071F100414CEB50707047C90241EADC
:104CD0005051C00218BF41F0010141F000414FEABC
:104CE0006C50C0F10900212810D240EACC7CCCF1F4
:104CF000200C11FA0CF070F10040CCF1200C21FADC
:104D00000CF00CF0004C40EB0C0070474FEACC70FC
:104D10007047490011F5001F04D84FEACC10FF304E
:104D2000C0057047C817704740EA010C5FEA4C0C99
:104D300007D0884205D14FEA400C1CF1807F98BF14
:104D40008042704710B5FF2313EAD0541DBF13EA09
:104D5000D1529C429A4239E0A41ADA0780EA010350
:104D6000134042EA012142EA0020421A3CBF641E7D
:104D700001EB4202090AB2FBF1FE01FB1E22120204
:104D8000B2FBF1F001FB10226EF30F201202B2FB16
:104D9000F1FE4EEA00207F3406DDFE2C24DA53EAD1
:104DA000500050EBC45010BDD4F1020401FB1E2290
:104DB00040F08071192C1DDC21FA04F0C4F12004AC
:104DC000A140114371F10042584110BD9C421ABFED
:104DD00003EAD1529A420FE080EA010E0EF000433E
:104DE000400004D0490016D143F0FF4010BD4900F7
:104DF00008BFD343180010BD9C4205D1D21AF7D08A
:104E000001F00041484010BD4A0212BF0846484028
:104E100000F0004010BD4AB90902B1FA81F2914098
:104E200044B1A418C00140F000409EE7C90141F020
:104E3000004152420002B0FA80F4A040141B94E7F3
:104E400038B50B46C3F3C751FF29024609D011B14B
:104E50004FF0FF3409E058020CBF00246FF001044A
:104E600003E0580214BF02240124C2F3C751FF29F2
:104E700008D011B14FF0FF3108E0500206D06FF0BA
:104E8000010103E0500214BF02210121012CB8BF2F
:104E900001291CDA002A46BF82F0004208250025BD
:104EA000002B44BF83F0004385F0060518461146E9
:104EB00000F052F802D2FFF745FF1FE0002C04D5A6
:104EC00010461946FFF73EFF1AE0002018E00229BD
:104ED00001D1104632BD022C01D1184632BD8C42A0
:104EE0000CBF4FF07E500020002A4CBF0825002543
:104EF000002B48BF85F00605012901D185F0020588
:104F00002946BDE8344000F097B8C0F3C751FF29E7
:104F10000AD011B14FF0FF307047400202D06FF05D
:104F20000100704700207047400201D00220704706
:104F3000012070474FF0807C1CEB400F94BF1CEBAE
:104F4000410F05E040EA010C5FEA4C0C01D28142BE
:104F5000704718BF884270474FF0807C1CEB400FB1
:104F600094BF1CEB410F05E040EA010C5FEA4C0CDA
:104F700001D28842704718BF8142704770B5C0F3B4
:104F8000C751FF2904460CD009B940020BD0204676
:104F90000021FFF7E1FF3ABF84F000440825002517
:104FA00003E04002F3D0204670BD20461D49FFF7C4
:104FB000D3FF12D24FF07E502146FFF759FD06462F
:104FC0004FF07E502146FFF711FD3146FFF7A2FC5E
:104FD00000F0ACF80146204616E01349FFF7BCFF8D
:104FE00019D24FF07E502146FFF742FD06464FF0A2
:104FF0007E502146FFF7FAFC3146FFF78BFC00F0AC
:1050000095F885F002052146FFF79CFE2946BDE88C
:10501000704000F011B800F0C3F8212101606FF07A
:10502000004070BDF404353F0100803F1FB500F023
:10503000B7F8212101601FBDF8B50C462B49FFF7D9
:1050400079FF054612D82A4E3146FFF763FC2949FD
:10505000FFF7CCFC074628463146FFF7C7FC014660
:105060003846FFF76FFE054644F001042846224902
:10507000FFF772FF03D32149FFF75CFF21D82946D0
:10508000FFF748FC064628463146FFF743FC1C491B
:10509000FFF740FC2946FFF7A9FC054619483146B1
:1050A000FFF738FC1849FFF7A1FC3146FFF732FC47
:1050B0004FF07E51FFF79AFC01462846FFF742FE6B
:1050C0000546A00748BF85F0004514F0070007D04B
:1050D0000FF2380151F820002946FFF787FC0546FA
:1050E000200748BF85F000452846F2BDA430893E20
:1050F000D7B3DD3F000080BF000080B901008039D8
:105100006AD5033F2B94A93DB82A593F00000000FF
:10511000920A063FDB0FC93F920A863FDB0FC93F69
:10512000920A0640DB0F4940368D27404FF40002BB
:10513000C10D23D0FF2929D230EAC15010437D315F
:10514000490828BF001880004FF0C073B0F190608C
:1051500006D452080ED2C01A9B18D2EB4000F8D5E4
:10516000520806D2C0189B1AD2EB4000F1D5520863
:10517000F8D35B1E580850EBC1507047B0FA80F16D
:1051800008398840F9D0D1F10101D8E7FF29F4D0DE
:10519000D042F2D84000F0D0C843FFF747BF00002C
:1051A000014800F003B80000D45FFF1F7047000003
:1051B000DFF81C0A00684FF4FA7190FBF1F003214C
:1051C00090FBF1F101EB4101401AC0B268B9DFF880
:1051D000040A016821F080710160016841F00071EA
:1051E0000160016841F080611EE001280DD1DFF807
:1051F000E409016841F080710160016821F00071EB
:105200000160016841F080610EE002280DD1DFF8F5
:10521000C409016841F080710160016841F00071CA
:105220000160016821F08061016070472DE9F04F55
:10523000DFF8A409DFF8A419406883B0FFF782FD06
:10524000DFF89CB95946FFF775FE98BF4FF07E50C6
:1052500005D9DFF89019FFF77FFE38BF0846DFF861
:105260008869F062FFF778FC00F0FCFCDFF87C292D
:10527000DFF87C3900F072FDFFF70EFDDFF87419DE
:10528000FFF758FE98BFDFF8700905D9DFF86C19F1
:10529000FFF762FE38BF0846F16B7063FFF7E8FB6B
:1052A0004FF07C51FFF736FB8146DFF85479DFF889
:1052B000548938684146FFF72DFB05467564F06B4D
:1052C000DFF84449DFF844A9FFF746FCCDE90001C7
:1052D00048462946FFF78AFBFFF73EFC2246534625
:1052E00000F03CFDDDE9002300F00AFEFFF7D4FCEE
:1052F000F063DFF81C19DFF8E0080068FFF722FD13
:105300005946FFF717FE98BF4FF07E5005D9DFF8DA
:10531000D418FFF721FE38BF08463063FFF71CFCA6
:1053200000F0A0FCDFF8C428DFF8C43800F016FD58
:10533000FFF7B2FCDFF8BC18FFF7FCFD98BFDFF801
:10534000B80805D9DFF8B418FFF706FE38BF0846DD
:10535000B063356C2946FFF78BFB4FF07C51FFF7AC
:10536000D9FA814678684146FFF7D4FA0746B76410
:105370002846FFF7F1FB05468B4648463946FFF7BE
:1053800035FBFFF7E9FB2246534600F0E7FC2A46CF
:105390005B4600F0B5FDFFF77FFC306403B0BDE86D
:1053A000F08F2DE9F04FDFF86C48276804EB870099
:1053B00087B0D0F8B80048B9002F00F00583DFF8B7
:1053C0005818C8614861C8604860FDE204EB0719DD
:1053D000D9F81800FFF776FAE060D9F81C00FFF75B
:1053E00071FA2061D9F82000FFF76CFADFF8F8872E
:1053F0000546012F656108F1140640F096803C20B7
:10540000B063B06B08EB8000D0F8E001FFF7A4FBBD
:105410000746DFF8BC0700680D466168401A400087
:10542000FFF750FADFF8F417FFF774FA8246D8F85E
:105430007003FFF747FA01465046FFF783FCFFF77A
:105440008BFB002200F0D0FD3A462B4600F086FC94
:10545000FFF722FC7060F06A7168F060FFF708FBEC
:105460000746D4F810A07069FFF776FB0546894619
:1054700038465146FFF74EFAFFF76EFB0022DFF881
:10548000A03700F0C7FF2A464B4600F039FDFFF772
:1054900003FCD4F808908346C6F814B04846FFF7DA
:1054A00011FA054658462946FFF744FD98BF756135
:1054B000E0683946FFF72EFA7169FFF797FA074659
:1054C0006169706BFFF726FA3946FFF78FFADFF84C
:1054D0004817B76A4860B76080F000404861002014
:1054E000C8F814003069FFF737FBCDE900013846F2
:1054F0005146FFF70FFAFFF72FFB0022DFF82037A6
:1055000000F088FFDDE9002300F0FAFCFFF7C4FBA0
:105510002946FFF70FFD0746376140F23082C9F197
:105520000000FFF7CFF9394632E2022F1ED0032FD9
:1055300006D13C20B06308F55C71606D486022E0E4
:10554000042F10D16420A065DFF8D806E0600020A9
:10555000E0652061C8202066DFF8CC06606100208D
:10556000706130610AE0052F40F0EE80D9F8240028
:10557000B063022F3FF445AF042F01D1002069E74B
:10558000032F40F0E18008F55C704768384601F071
:1055900065F80022DFF8883600F0E0FB824608EB71
:1055A00087008B46D0F87C03FFF7D6FA52465B465D
:1055B00000F0A6FC4FF0C042DFF8703600F0CEFBE2
:1055C000DFF86C36002200F025FF07468B460122EB
:1055D00000F00AFDCDE9040100223846594600F0EA
:1055E00003FDFFF759FB8146DFF8E40561680068B9
:1055F000401A4000FFF766F9DFF82016FFF78AF936
:105600000746D8F87003FFF75DF901463846FFF703
:1056100099FBFFF7A1FACDE90201B06B08EB80001E
:105620000190DDE90401FFF737FB0199D1F8E011A2
:10563000FFF770F9FFF790FA07468B46DDE90201A4
:10564000002200F0D1FC3A465B4600F087FBFFF7F2
:1056500023FB7060F06A7168F060FFF709FA009050
:105660007069FFF779FA07468B4600992069FFF7C2
:1056700051F9FFF771FADFF8A835002200F0CAFEF1
:105680003A465B4600F03CFCFFF706FBD4F808A066
:105690008346C6F814B05046FFF714F9074658463B
:1056A0003946FFF747FC98BF77610099E068FFF73C
:1056B00031F97169FFF79AF98346706B2946FFF754
:1056C00029F95946FFF792F9DFF84C15486080F048
:1056D0000040486149460198006DFFF71BF9FFF74C
:1056E0003BFA05468946DDE90201002200F07CFC18
:1056F0002A464B4600F032FBFFF7CEFAC8F81400FA
:10570000B56AB5603069FFF727FACDE90001D8F82E
:1057100014102846FFF7ACF92169FFF7FBF8FFF7F3
:105720001BFA0022DFF8F83400F074FEDDE90023F4
:1057300000F0E6FBFFF7B0FA3946FFF7FBFB054642
:10574000356140F21C811EE1052F40F0A580DFF895
:10575000800461680068401A4000FFF7B3F8DFF882
:10576000BC14FFF7D7F80746D8F87003FFF7AAF87C
:1057700001463846FFF7E6FAFFF7EEF9CDE90201F8
:10578000B06B08EB80000090D0F8E001FFF7E4F97F
:1057900007468B46DDE90201012200F025FC3A466E
:1057A0005B4600F0DBFAFFF777FA7060F06A716829
:1057B000F060FFF75DF981467069FFF7CDF90746A4
:1057C0008B4620694946FFF7A5F8FFF7C5F9002287
:1057D000DFF84C3400F01EFE3A465B4600F090FBCA
:1057E000FFF75AFAD4F808A08346C6F814B050461A
:1057F000FFF768F8074658463946FFF79BFB98BF06
:105800007761E0684946FFF785F87169FFF7EEF8C0
:105810008146706B2946FFF77DF84946FFF7E6F8A9
:10582000DFF8F413486080F0004048610098006D94
:10583000FFF792F905468946DDE90201002200F0F2
:10584000D3FB2A464B4600F089FAFFF725FAC8F841
:105850001400B56AB5603069FFF77EF9CDE9000143
:10586000D8F814102846FFF703F92169FFF752F81A
:10587000FFF772F90022DFF8A83300F0CBFDDDE975
:10588000002300F03DFBFFF707FA3946FFF752FB14
:105890000546356173D976E0072F40F09580DFF833
:1058A0009403DFF8941300F0EFFEE44B002200F0C5
:1058B00055FA4FF0C042DD4B00F0ACFDFFF7ECF9BC
:1058C0007060F06A7168F060FFF7D2F88146706925
:1058D000FFF742F907468B4620694946FFF71AF859
:1058E000FFF73AF90022CE4B00F094FD3A465B46B2
:1058F00000F006FBFFF7D0F9D4F808A08346C6F8FD
:1059000014B05046FEF7DEFF074658463946FFF70B
:1059100011FB98BF7761E0684946FEF7FBFF7169AC
:10592000FFF764F88146706B2946FEF7F3FF49469E
:10593000FFF75CF8B849486080F0004048610020FB
:10594000C8F81400B56AB5603069FFF705F9CDE90C
:10595000000120692946FEF7DDFFFFF7FDF8002270
:10596000AF4B00F057FDDDE9002300F0C9FAFFF767
:1059700093F93946FFF7DEFA0546356103D8A0688A
:10598000FEF7A0FF07E0CAF10000FEF79BFF2946E3
:10599000FFF7D0FA00D83061B068D8F81410FFF7DC
:1059A00067F8E168FEF7B6FF3169FFF71FF8616934
:1059B0000546306BFEF7AEFF2946FFF717F896490C
:1059C000C86080F00040C86107B0BDE8F08FF8B54E
:1059D000854A9B4B106C9B4D8F4E1946FFF7AAFAD8
:1059E0000DD9994C2146FFF7B7FA08D3D06B194669
:1059F000FFF7A0FA03D92146FFF7AEFA05D200203F
:105A0000F0617061F060706005E07468204600210C
:105A1000FFF790FA16D871680020FEF7E7FF2946D5
:105A2000FFF788FA706098BF7560706800F076FEC6
:105A300002460221002000F04CFF8448016821F05A
:105A400002011DE04FF000402146FEF7CFFF8049E4
:105A50007060FFF781FA3CBF7E4870607068FFF7A6
:105A60007BF87D4B002200F04BFA00F063FF02460A
:105A70000221002000F02DFF7448016841F002016E
:105A800001600021F468754F2046FFF753FA15D8DE
:105A900000202146FEF7AAFF2946FFF74BFAF060E7
:105AA00098BFF560F06800F039FE0246032100203F
:105AB00000F00FFF386820F4805019E04FF00040EC
:105AC0002146FEF793FF6249F060FFF745FA3CBFBD
:105AD0006048F060F1686248FEF788FF00F01EFE43
:105AE00002460321002000F0F4FE386840F48050A4
:105AF0003860002174692046FFF71CFA15D8002091
:105B00002146FEF773FF2946FFF714FA706198BF2C
:105B10007561706900F002FE02460421002000F069
:105B2000D8FE386820F4005019E04FF000402146BC
:105B3000FEF75CFF46497061FFF70EFA3CBF45482F
:105B4000706171694648FEF751FF00F0E7FD0246BB
:105B50000421002000F0BDFE386840F40050386099
:105B60000021F4692046FFF7E5F915D80020214609
:105B7000FEF73CFF2946FFF7DDF9F06198BFF561BC
:105B8000F06900F0CBFD02460021022000F0A1FEEA
:105B9000386820F4006019E04FF000402146FEF71D
:105BA00025FF2B49F061FFF7D7F93CBF2948F06189
:105BB000F1692B48FEF71AFF00F0B0FD0246002104
:105BC000022000F086FE386840F400603860F1BDC5
:105BD000F836FF1F00F10F40C839FF1F0000964341
:105BE0000100803F000080BFC031FF1FB694631AE0
:105BF000DCA54C400100B4420000B4420000B4C235
:105C0000F839FF1F8DC179BDFCA9F1D24D62603F0B
:105C1000000096C3E435FF1FD836FF1FDB0F494055
:105C2000000024400000C84200004843FB21194006
:105C3000008076C0D408CB3D8DB0DCBF00807640BC
:105C400001000C420000164500000CC280F00F401D
:105C5000FFFF15C5000016C5002CAF4000F00F4037
:105C600000007A452DE970480D46C5F30A5240F20E
:105C7000FF739A4283B0044610D0002A04BF280361
:105C800054EA10300ED020460022002300F068FEB7
:105C90003ABF85F000450826002605E0280354EAAF
:105CA0001030F0D0204655E02946234A234B00F01F
:105CB00057FE1AD2DFF888B00020594622462B46FC
:105CC00000F066FECDE9000100225B462046294631
:105CD00000F016F9DDE9002300F040F8FEF764FF5C
:105CE00002460B46204629461DE00122144B00F0D7
:105CF00037FE27D29B460020594622462B4600F00D
:105D000047FECDE9000100225B462046294600F00F
:105D1000F7F8DDE9002300F021F8FEF745FF86F0F3
:105D2000020622462B4600F075FB324603B0BDE862
:105D3000704800F0EDBE00BFCE3B7F669EA0E63F00
:105D40000000F03FFFF72CFA212101604FF0FF30F7
:105D50006FF0004103B0BDE870880000B0B581EA83
:105D6000030C0CF0004C40F2FF7515EA11541DBFF6
:105D700015EA1357AC42AF4239E0E41923EA455320
:105D800043F48013C90241F0004141EA505EC7026A
:105D90001100A7FB020200284FF00000EEFB0120DB
:105DA0004FF00001E3FB072118BF42F00102401849
:105DB00000214941E3FB0E01A4F580640F0302D2E8
:105DC00052004041494154F101046CDD470872F131
:105DD000004250F1000051EB0451A1F580115CBF6D
:105DE00041EA0C01B0BD4CEA05510020B0BD05EA06
:105DF0001357AC4214BFAF4241E050EA410E1CBF02
:105E000052EA430E02E061460020B0BD24423C4409
:105E10001BD15FEA070EF6D0090302BF014600203E
:105E2000AEF1140EB1FA81F7AEEB070401FA07FEEA
:105E30000C37C7F1200100FA07F7C8404EEA000E00
:105E400023EA455343F48013A2E733F00043B3FA47
:105E500083F704BFB2FA82FE77440B3FE41BB7F12D
:105E6000200E2FBF02FA0EF3BB40C7F1200E22FA1C
:105E70000EFE38BF43EA0E03BA40641C82E750EAC4
:105E8000410E14BF52EA430E6FF000014FF40017A9
:105E900017EB430F8ABF194617EB410FB5E74CEAE2
:105EA00005510020B0BDD4F10104B4F120070FDA90
:105EB000C4F12007520828BF42F0010210FA07F58A
:105EC00001FA07F7E1BF2A43E0403843E1400FE021
:105ED000352C98DCC7F1200452EA400220FA07F280
:105EE00018BF42F0010231FA07F0A1400A43002135
:105EF00072F1004250F1000051EB0C01B0BD000006
:105F000070B44FF0004591EA030C44BF6B4000F0C1
:105F100049BD00BF841A71EB030603D2001BB141D7
:105F2000121973414FF4001C1CEB410F34BF7CEB82
:105F3000430443E00C0DA4EB1356352E50DC45EA28
:105F4000C323DB0A45EAC121C912B6F120050DDDE4
:105F500063FA05F6EB4086EA0305124218BF45F0E6
:105F60000105C01851F100010CD213E062FA06F5E8
:105F7000F2405540F3415A40B340F3405A40801834
:105F8000594107D349085FEA30005FEA350528BF69
:105F900045F0010501F58011420875F1004250F10C
:105FA000000041EB045170BC4FF4001C1CEB410F8E
:105FB00038BF70470020090D090570471CEB410FE1
:105FC00010D252EA43060BD0BCEB410F05D80C0DA2
:105FD000AB43661E342EB5DD02E0AB438018594159
:105FE00070BC704770BC70472DE9F04C04460D46FC
:105FF000164683B0DFF87C03DFF87C1322462B467D
:10600000FFF7ACFE8B4621F00041DFF87023DFF88C
:10601000703300F0A5FC074680F0F380594600225B
:10602000002300F065FE104694BFDFF85813DFF838
:1060300058133A465B46FFF763FF00F065FC070024
:1060400051D000F00BFB0022D04BFFF787FE8246B9
:106050008B464FF0A040CE4952465B46FFF77EFE8E
:1060600002460B462046294600F092FC04460D46A7
:106070004FF0C040C74952465B46FFF76FFE0246ED
:106080000B462046294600F083FC04460D464FF09F
:106090000050C14952465B46FFF760FE02460B4680
:1060A0002046294600F074FC04460D460020BB49FA
:1060B00052465B46FFF752FE02460B4620462946F3
:1060C00000F066FC04460D464FF00050B4495246BD
:1060D0005B46FFF743FE02460B462046294600F08A
:1060E00057FC04460D4607F0030086192046294652
:1060F0006FF00102AB4B00F0FBFD0BD800224FF01C
:10610000795300F02DFC05D2F00740F12D810024D9
:10611000A54D29E122462B46FFF720FE0746F00752
:106120008B4631D5A148A2493A465B46FFF716FE99
:10613000A04AA14BFFF7E4FE3A465B46FFF70EFE8E
:106140009E4A9F4BFFF7DCFE3A465B46FFF706FE92
:106150009C4A9D4BFFF7D4FE3A465B46FFF7FEFD97
:106160009A4A9B4BFFF7CCFE3A465B46FFF7F6FD9B
:106170006FF05102974BFFF7C3FE3A465B46FFF7BD
:10618000EDFD0022884B37E03A465B462046294623
:10619000FFF7E4FDCDE900013A468F488F495B46A1
:1061A000FFF7DCFD8E4A8F4BFFF7AAFE3A465B46AF
:1061B000FFF7D4FD8C4A8D4BFFF7A2FE3A465B46B3
:1061C000FFF7CCFD8A4A8B4BFFF79AFE3A465B46B7
:1061D000FFF7C4FD884A894BFFF792FE3A465B46BB
:1061E000FFF7BCFD864A874BFFF78AFEDDE90023F7
:1061F000FFF7B4FD22462B46FFF782FE04460D460C
:10620000B2E0C5F30A5240F2FF739A420DD0002A61
:1062100004BF280354EA103015D1F00744BF00240E
:10622000614DB00740F1F080A0E0280354EA10303F
:1062300040F0EA80FEF7B4FF212101604FF0FF300B
:106240006FF00041E2E0CDE9004500A800F068FDF4
:10625000DDE900458619204629466FF00102514BC1
:1062600000F046FD0AD800224FF0795300F078FB89
:1062700004D2F00778D500244B4D75E022462B461A
:10628000FFF76CFD0746F0078B4631D54748484974
:106290003A465B46FFF762FD464A474BFFF730FE42
:1062A0003A465B46FFF75AFD444A454BFFF728FE46
:1062B0003A465B46FFF752FD424A434BFFF720FE4A
:1062C0003A465B46FFF74AFD404A414BFFF718FE4E
:1062D0003A465B46FFF742FD6FF051023D4BFFF738
:1062E0000FFE3A465B46FFF739FD00222E4B37E0A2
:1062F0003A465B4620462946FFF730FDCDE90001CE
:106300003A46354835495B46FFF728FD344A354B58
:10631000FFF7F6FD3A465B46FFF720FD324A334B66
:10632000FFF7EEFD3A465B46FFF718FD304A314B6A
:10633000FFF7E6FD3A465B46FFF710FD2E4A2F4B6E
:10634000FFF7DEFD3A465B46FFF708FD2C4A2D4B72
:10635000FFF7D6FDDDE90023FFF700FD22462B46BF
:10636000FFF7CEFD04460D46B0074DD585F0004140
:1063700020464BE083C8C96D305FE43F0000A0FFBA
:10638000FFFFDF410000E03F0000E0BF0000303EC3
:10639000FB21B941B410114026A6513E5C14D33CF8
:1063A0009A833B3BFFFF3FBE0000F03F09260A10E7
:1063B00039BA213E3BA861C6F97D92BE63AC3090EC
:1063C0009F01FA3EF6FB51166CC156BFB1025555FE
:1063D0005555A53FFFFFDFBFB08F2FC310D8E53D58
:1063E0008F0C73A1E1E55ABE4DADE44FE31DC73EEE
:1063F0003EE3B519A0012ABFFAF010111111813F37
:10640000425555555555C5BF2046294603B0BDE8F0
:10641000F08C0000F0B540F2FF7581EA030C0CF03F
